:020000040800F2
:10000000D0800220DD010008EB25000895200008C3
:10001000E92500087F040008252D000800000000E5
:10002000000000000000000000000000E52A0008B9
:100030004B05000800000000ED250008212B0008FA
:10004000F7010008F7010008F7010008F7010008B0
:10005000F7010008F7010008F7010008F7010008A0
:10006000F7010008F7010008F70100088104000803
:100070008D04000899040008F7010008F701000842
:10008000F7010008F7010008F7010008F701000870
:10009000F7010008F7010008F7010008F701000860
:1000A000F7010008212C0008F7010008F7010008FB
:1000B000F7010008F7010008F7010008F701000840
:1000C000F7010008F701000855280008F7010008AB
:1000D000F7010008F7010008F7010008F701000820
:1000E000F7010008F7010008F7010008F701000810
:1000F000F7010008F7010008F7010008F701000800
:10010000F7010008F7010008F7010008F7010008EF
:10011000F7010008F7010008F7010008F7010008DF
:10012000F7010008F7010008F7010008F7010008CF
:10013000F7010008F7010008F701000800F002F8D5
:1001400000F03CF80AA090E8000C82448344AAF135
:100150000107DA4501D100F031F8AFF2090EBAE833
:100160000F0013F0010F18BFFB1A43F001031847EB
:10017000F066030010670300103A24BF78C878C106
:10018000FAD8520724BF30C830C144BF04680C609D
:10019000704700000023002400250026103A28BFE5
:1001A00078C1FBD8520728BF30C148BF0B607047E9
:1001B0001FB52EF026FD1FBD10B510BD00F025F9AE
:1001C0001146FFF7F5FF25F04DF800F043F903B4B1
:1001D000FFF7F2FF03BC00F04BF90000094880472D
:1001E00009480047FEE7FEE7FEE7FEE7FEE7FEE719
:1001F000FEE7FEE7FEE7FEE704480549054A064B31
:1002000070470000C52B00083D010008D0500220B7
:10021000D0800220D0600220D060022053EA020C7D
:1002200000F069802DE9F04B4FF00006002B1FBF56
:10023000B3FA83F503FA05F424FA05F65E4012BF1B
:100240001643B2FA82F502FA05F4C5F120051EBF85
:1002500022FA05FC44EA0C04203556EA044C4FEA25
:10026000144418BF641C4FF000084FF0000990427E
:1002700071EB030C39D3002919BFB1FA81F701FAE8
:1002800007F6B0FA80F700FA07F6C7F120071EBF9D
:1002900020FA07FC46EA0C062037B6FBF4FCA7EB75
:1002A0000507103F07F01F0BCBF120060CFA0BFBE4
:1002B0002CFA06F644BFB3460026202FA4BF5E46A4
:1002C0004FF0000B5BEA060C08BF4FF0010B19EB77
:1002D0000B09ABFB027C48EB0608C01B06FB02CCFB
:1002E0000BFB03CC71EB0C01C1E70B460246414608
:1002F0004846BDE8F08B13B54FF000004FF0000109
:10030000AFF30080BDE81C40704710B54C1084EA84
:10031000530404D54042C1F1000138BF491E1B42BD
:1003200004D55242C3F1000338BF5B1EFFF776FFCE
:1003300014F0804F04D04042C1F1000138BF491E83
:1003400014F0004F04D05242C3F1000338BF5B1ECB
:1003500010BD10B5203AC0F00B80B1E81850203A1B
:10036000A0E81850B1E81850A0E81850BFF4F5AF55
:100370005FEA027C24BFB1E81850A0E8185044BFDF
:1003800018C918C0BDE810405FEA827C24BF51F84C
:10039000043B40F8043B08BF7047D20728BF31F840
:1003A000023B48BF11F8012B28BF20F8023B48BF91
:1003B00000F8012B70474FF0000200B51346944639
:1003C0009646203922BFA0E80C50A0E80C50B1F1AD
:1003D0002001BFF4F7AF090728BFA0E80C5048BFC1
:1003E0000CC05DF804EB890028BF40F8042B08BF5F
:1003F000704748BF20F8022B11F0804F18BF00F85B
:10040000012B7047704770477047754600F02CF815
:10041000AE4605006946534620F00700854618B0F1
:1004200020B5FFF7E9FEBDE820404FF000064FF091
:1004300000074FF000084FF0000B21F00701AC4619
:10044000ACE8C009ACE8C009ACE8C009ACE8C00938
:100450008D46704710B50446AFF300802046BDE8D6
:100460001040FFF7B4BE00000048704770500220F3
:1004700001491820ABBEFEE7260002007047FEE7E8
:10048000014800F02DBA00000C020020014800F0E5
:1004900027BA00006C020020014800F021BA0000D9
:1004A000480100200D4B416C026821F003019A4283
:1004B00001D20B4B01E00A4B1C3319448164D1B2C9
:1004C00014220839B1FBF2F1054A8032C26401F00E
:1004D0001F0201219140016570470000080402409D
:1004E000000802400179084A01F03F0102EB810255
:1004F0004265054A4432491E826501F0030201212A
:100500009140C16570470000FC08024030B5D0E959
:1005100013456560446D14B1D0E91645656090F8E7
:10052000444004F01C050124AC40056C6C60046878
:1005300063608368102B036803D099600068C26011
:1005400030BD9A600068C16030BD704772B6FEE78A
:1005500070B54FF090444FF48071204600F0D8FB06
:1005600018B30221204600F0D3FB00B3164C102133
:10057000204600F0CDFBE0B12021204600F0C8FB72
:10058000C8B1124D0421284600F0C2FBA8B14FF4B7
:100590008061284600F0BCFB88B14FF40051204632
:1005A00000F0B6FB68B1002070BD012070BD0220D4
:1005B00070BD032070BD042070BD052070BD0620F5
:1005C00070BD072070BD000000080048000400480E
:1005D00070B5114C0546E06900F0AAF800281AD061
:1005E000012D14D0022D0ED0052D08D0072D12D1CB
:1005F0000022E0690221BDE8704020F0DEB900224F
:100600000721E069F7E700220421E069F3E700220F
:100610000121E069EFE770BDE400002070B5114CE6
:100620000546206B00F084F800281AD0012D0DD06B
:10063000022D0FD0052D05D0072D12D10022072144
:10064000206B0AE000220421206B06E00022012139
:10065000206B02E00022206B0221BDE8704020F0F8
:10066000ACB970BDE400002070B5114C0546606C5B
:1006700000F05EF800281AD0012D09D0022D0BD011
:10068000052D0DD0072D12D100220721606C0AE044
:1006900000220421606C06E000220121606C02E06F
:1006A0000022606C0221BDE8704020F086B970BD68
:1006B000E400002070B5114C0546A06D00F038F83C
:1006C00000281AD0012D09D0022D0BD0052D0DD0F8
:1006D000072D12D100220721A06D0AE0002204217B
:1006E000A06D06E000220121A06D02E00022A06DB5
:1006F0000221BDE8704020F060B970BDE400002028
:1007000010B5074C0749206820F06AFB00232C2213
:10071000054920681CF0D2FB04490020087010BD78
:10072000E4000020341C0308959902081C000020F6
:10073000002801D01FF0EEB8704700002DE9F0410D
:10074000074621F02BFC244C0646A16809F0FBFC6F
:10075000224D08B100201BE03046E16909F0F3FCAE
:1007600008B1012014E03046216B09F0ECFC08B11F
:1007700002200DE03046616C09F0E5FC08B1032071
:1007800006E03046A16D09F0DEFC002822D00420EE
:100790002870C0B205281DD2DFE800F003080D1252
:1007A00017003846BDE8F04100F01AB83846BDE8F9
:1007B000F041FFF70DBF3846BDE8F041FFF72EBF0F
:1007C0003846BDE8F041FFF74FBF3846BDE8F0417D
:1007D000FFF770BFBDE8F081E40000201C0000209E
:1007E00070B5114C0546A068FFF7A2FF00281AD08B
:1007F000012D0CD0022D0ED0052D10D0072D12D1B9
:100800000022A0680221BDE8704020F0D6B8002286
:100810000721A068F7E700220421A068F3E700227F
:100820000121A068EFE770BDE40000200E49052813
:1008300018D2DFE800F003060A0E120008680B4920
:100840000EE048690949091D0AE0886A074908312C
:1008500006E0C86B05490C3102E0086D0349103110
:1008600029F05EBB70470000E4000020341C030840
:1008700010B590F825100024022903D00421C1638B
:1008800001242BE001680A6822F00E020A60016868
:100890000A6822F001020A60816C0A6822F4807200
:1008A0000A6090F84410036C01F01C01012202FA66
:1008B00001F15960D0E913134B60416D31B10B6800
:1008C00023F480730B60D0E916134B6080F8252069
:1008D000002180F82410816B01B18847204610BDAB
:1008E000F0B4016C0C6801680D6890F8442002F0C7
:1008F0001C06042202FA06F3234211D06B070FD51F
:100900000B689B0603D40B6823F004030B6090F87C
:10091000441001F01C018A40016C4A60016B1DE02B
:10092000022303FA06F727424FF0000C4FF00102B2
:1009300018D0AF0716D50C68A40605D40C6824F0AF
:100940000A040C6080F8252090F8441001F01C0186
:100950008B40016C4B6080F824C0C16A00291AD01A
:10096000F0BC08470823B340234214D02B0712D50C
:100970000B6823F00E030B6090F84410036C01F039
:100980001C0102FA01F15960C26380F8252080F849
:1009900024C0416BE2E7F0BC7047000070B5040072
:1009A0000CD02C4A21681420914209D22A4A0A44C8
:1009B000B2FBF0F08000606428480AE0012070BDBE
:1009C000244A52420A44B2FBF0F08000606421489D
:1009D00008382064022084F825000A6847F6F07081
:1009E0008243D4E902031843D4E904352B43184366
:1009F000A3691843E3691843236A18431043086046
:100A00002046FFF74FFDA0680025B0F5804F00D1CC
:100A100065602079A16C00F03F000860D4E9130103
:100A200041606068401E032808D82046FFF75AFD41
:100A3000606D0560D4E91601416002E06565A56559
:100A4000E565E563012084F8250084F82450002042
:100A500070BD000008040240F8FFFDBF0000024026
:100A600070B5044690F82400002501280CD0012020
:100A700084F8240094F825600020012E06D084F824
:100A800024000225284670BD022070BD022684F88D
:100A90002560E0632068066826F0010606602046AF
:100AA000FFF734FD206B00282068016802D041F078
:100AB0000E0106E021F0040101602068016841F0A8
:100AC0000A010160A06C0168C90303D5016841F403
:100AD00080710160606D18B1016841F4807101603E
:100AE0002068016841F001010160CBE770B5044660
:100AF00000F020F90546601C02D004480078044448
:100B000000F018F9401BA042FAD370BD0800002085
:100B10002DE9F04FDFF8E0B1DFF8DC91002301258B
:100B200003240BF1800B85B00F2709F1040A0BF1A8
:100B3000040ED9E005FA03FC12EA0C027ED00E790D
:100B400006F00306012E01D0022E20D18668009601
:100B50005E0004FA06F80496009E26EA080600964F
:100B6000D1F80C80049E08FA06F8009E48EA0608B0
:100B7000C0F80880466826EA0C0691F804C0CCF359
:100B8000001C0CFA03FC4CEA060CC0F804C00E79F9
:100B9000F643B6070DD0D0F80CC04FEA430804FA6C
:100BA00008F62CEA060C8E6806FA08F646EA0C06E9
:100BB000C6600E7906F00306022E15D1DE0800EBA2
:100BC00086060296366A4FEA437C4FEADC6807FAEB
:100BD00008FC26EA0C06D1F810C00CFA08FC4CEA16
:100BE000060C029EC6F820C0D0F800C04FEA4308A9
:100BF00004FA08F62CEA060C0E7906F0030606FA4B
:100C000008F646EA0C0606604E6816F4403F6AD0C5
:100C10003A4E23F0030C66440296B6684FEA837C92
:100C20004FEA1C7807FA08FC26EA0C06B0F1904F50
:100C300008D0DFF8CCC0604507D100E053E04FF0AA
:100C4000010C19E04FF0000C16E0DFF8B8C0604569
:100C500002D14FF0020C0FE0DFF8ACC0604502D1CA
:100C60004FF0030C08E0DFF8A4C0604502D14FF05C
:100C7000040C01E04FF0070C0CFA08FC4CEA060CDF
:100C8000029EC6F808C0D9F80060CC46D1F80480AE
:100C900096435FEAC82800D51643CCF80060DAF81E
:100CA0000060D446D1F8048096435FEA882800D5D6
:100CB0001643CCF80060DBF80060DC46D1F8048015
:100CC00096435FEAC83800D51643CCF80060DEF8DA
:100CD0000060F446D1F8048096435FEA883800D576
:100CE0001643CCF800605B1C0A6832FA03F67FF406
:100CF00021AF05B0BDE8F08F0008005800000140AA
:100D00000004004800080048000C0048001000489B
:100D10000069084000D001207047426921EA0203BF
:100D20000A4043EA0241816170470AB1816170471C
:100D30008162704701488068704700000800002009
:100D400001484068704700000800002002488168A0
:100D5000027811448160704708000020094810B5EE
:100D60000168002441F480710160032000F05AF80A
:100D70000F2000F009F808B1012401E000F024F888
:100D8000204610BD0040005870B50E4E05460024A8
:100D90003078A0B100F070FA31784FF47A72B2FB7B
:100DA000F1F1B0FBF1F001F03EF840B9102D06D2A0
:100DB00000222946501E00F015F8756000E001245D
:100DC000204670BD080000207047002809DB00F0B5
:100DD0001F02012191404009800000F1E020C0F88D
:100DE00000117047F0B40E4B1B680C46C3F302238E
:100DF000C3F10705042D00D90425191D072901D2C7
:100E0000002300E0DB1E012606FA05F1491E214001
:100E100099409E40761E16403143F0BC01F083BFDE
:100E20000CED00E0064900F0070208684FF6FF03EA
:100E3000184040EA0220034A10430860704700004F
:100E40000CED00E00000FA050248006800F4C06004
:100E500070470000000400580248016841F48071A6
:100E600001607047000400582DE9F0410446002756
:100E700000783E4640064FF0B04517D5206B78B15C
:100E8000B0F5800F07D0B0F5000F3BD0B0F5400FA4
:100E900038D0012709E0E86840F48030E86031E0AC
:100EA000201D01F0BAFB07002CD03E46208800052B
:100EB00046D5D5F8900000F44076206CB0423ED084
:100EC000FFF7CAFF3EB3D5F89000D5F8901041F473
:100ED0008031C5F89010D5F8901021F48031C5F814
:100EE0009010216C20F440700843C5F89000D5F8AC
:100EF000900010F0010F22D0FFF71CFF064641F2D0
:100F0000883818E0206BD5F8881021F4400101439F
:100F1000C5F88810CAE7206CD5F8901021F440710C
:100F20000143C5F890100AE0FFF704FF811B41451B
:100F300001D9032703E001F01AF90128F4D13E4654
:100F40002078C00707D0A069D5F8881021F00301E8
:100F50000143C5F888102078800707D5E069D5F8E7
:100F6000881021F440610143C5F888102078C0063C
:100F700002D5A06A01F05BF92078800602D5E06A0C
:100F800001F055F92078400702D5206A01F040F9B8
:100F90002078000702D5606A01F03AF92088C00580
:100FA00013D5606B01F02BF9606BB0F1006F03D1CA
:100FB000E86840F08070E860606BB0F1806F04D149
:100FC000201D01F064FB00B10646208880051BD57A
:100FD000A06BB0F1804F10D0B0F1004F0DD060B1D8
:100FE00020F08057002001F02DF9384601F007F974
:100FF000A06BB0F1C05F03D006E001F023F9F7E782
:10100000E86840F08070E8602088400518D5E06B03
:10101000D5F8881021F040510143C5F88810E06BE5
:10102000B0F1005F03D1E86840F48030E860E06B25
:10103000B0F1805F04D1201D01F063FB00B10646D2
:101040002088C00407D5606CD5F8941021F4404185
:101050000143C5F89410208880040BD5E06C696AC0
:1010600021F0300101436962A06C696A21F003013B
:10107000014369623046BDE8F08100002DE9F0418E
:101080000F46050077D07A4E306800F00700B8426E
:1010900012D2306820F0070038433060FFF74AFE74
:1010A000044604E0FFF746FE001B02287DD83068A6
:1010B00000F00700B842F5D128784FF0B04480071F
:1010C00015D5A868A16821F0F0010143A160FFF7E0
:1010D00031FE804606E000BFFFF72CFEA0EB0800C3
:1010E000022862D8A068C0F300400028F4D0287815
:1010F000800617D56869D4F8081121F0F001014382
:10110000C4F80811FFF716FE804605E0FFF712FE4F
:10111000A0EB0800022848D8D4F80801C0F34040EA
:101120000028F3D02878400618D5A869D4F808110B
:1011300021F00F0141EA1010C4F80801FFF7FAFD91
:10114000804605E0FFF7F6FDA0EB080002287ED8F8
:10115000D4F80801C0F300400028F3D028784007F5
:1011600015D5E868A16821F4E0610143A160FFF7AB
:10117000E1FD804606E048E0FFF7DCFDA0EB08005B
:10118000022864D8A068C0F340400028F4D0287832
:10119000000716D52869A16821F4605141EAC00111
:1011A000A160FFF7C7FD804606E050E0FFF7C2FDF3
:1011B000A0EB080002284AD8A068C0F380400028AD
:1011C000F4D02878C0072ED06868022806D00328FB
:1011D00008D0B8B12068C0F3802006E02068C0F3D2
:1011E000404002E02068C0F3406070B16868A168C8
:1011F00021F003010143A160FFF79CFD044641F289
:1012000088380AE000F0CAFFEFE70120BDE8F0816E
:10121000FFF790FD011B414519D800F099FF69685F
:10122000B0EB810FF4D1306800F00700B84215D957
:10123000306820F0070038433060FFF77BFD04463C
:1012400007E000BFFFF776FD001B022801D903204D
:10125000DCE7306800F00700B842F3D100F00CF88A
:1012600004490860FFF76CFDBDE8F041FFF78CBD55
:10127000004000581400002010B500F00FF84FF0A7
:10128000B0418968044A01F0F00102EB910109685C
:10129000B0FBF1F010BD000038EC02082DE9F04180
:1012A00000F056FF204F38B3204C04282CD06600A5
:1012B0004FF0B045082829D000F09BFF022808D045
:1012C00003282AD000F061FF00F0F00007EB900047
:1012D0000468E868E968C0F30620604301F0700222
:1012E000012101EB1212B0FBF2F2E86801EB507041
:1012F000B2FBF0F0BDE8F08100F047FF00F0F00035
:1013000007EB90000068F5E72046F3E72868C0F394
:1013100000500028F8D13046ECE72868C0F30050B0
:101320000028D6D13446D4E778EC02080024F40033
:101330002DE9F04104007DD020784FF0B0458006C3
:101340005FD500F005FF064600F053FF76B10C2E86
:1013500001D101280AD0E0690028286840D040F077
:1013600001002860FFF7E6FC06462EE0E069002851
:10137000E1D000F00AFF0146606A81420AD201F022
:1013800043FA002856D1606A00F017FF206A00F087
:101390000BFF09E000F011FF206A00F005FF606A12
:1013A00001F032FA0028EDD1FFF766FFFE49086030
:1013B000FE480068FFF7E8FC0028E3D121E000BF09
:1013C000FFF7B8FC801B022873D800F0E7FE002866
:1013D000F6D0606A00F0F1FE206A00F0E5FE10E051
:1013E00020F001002860FFF7A5FC064605E000BFDD
:1013F000FFF7A0FC801B0228E6D800F0CFFE0028F3
:10140000F6D12078C0073BD000F0A2FE064600F0DF
:10141000F0FE082E13D00C2E01D103280FD06068E7
:10142000B0F5803F28680ED020F4803028606068D6
:10143000B8B100E010E2FFF77DFC06460BE0606803
:10144000002895D01CE040F48030EFE7FFF772FCF5
:10145000801B6428B8D82868C0F340400028F5D025
:101460000EE0FFF767FC064605E000BFFFF762FCF1
:10147000801B6428A8D82868C0F340400028F5D114
:10148000207880073AD500F063FE064600F0B1FEF2
:10149000042E0FD00C2E01D102280BD0E0680028BA
:1014A00028681AD040F480702860FFF743FC064695
:1014B0000DE02AE1E0680028C3D0206900F04EFE6C
:1014C0001CE000BFFFF736FC801B022894D8286878
:1014D000C0F380200028F5D0EFE720F4807028606A
:1014E000FFF728FC064604E0FFF724FC801B0228D7
:1014F000B0D82868C0F380200028F5D12068010703
:1015000001D4C1064DD56169E9B3C0064AD500F0E2
:1015100035FE90B9D5F8940040F00100C5F894006C
:10152000FFF708FC064604E0FFF704FC801B0228D6
:1015300090D800F023FE0028F6D0D5F8940040F0B3
:101540000400C5F89400FFF7F5FB064605E000BF70
:10155000FFF7F0FB801B03288CD8D5F89400C0F36C
:10156000C0000028F4D0A069D5F8941021F470616F
:1015700041EA0020C5F89400D5F8940020F001005D
:10158000C5F8940000E033E0FFF7D4FB064604E022
:10159000FFF7D0FB801B022898D800F0EFFD002851
:1015A000F6D14EE0D5F8940040F00100C5F8940063
:1015B000FFF7C0FB064604E0FFF7BCFB801B0228D8
:1015C00084D800F0DBFD0028F6D0D5F8940020F098
:1015D0000400C5F8940004E0FFF7ACFB801B03286F
:1015E00086D8D5F89400C0F3C0000028F4D128E0D4
:1015F000D5F8940020F00400C5F89400FFF79AFB9A
:10160000064604E0FFF796FB801B03287DD8D5F83B
:101610009400C0F3C0000028F4D1D5F8940020F065
:101620000100C5F89400FFF785FB064605E000BF02
:10163000FFF780FB801B022867D800F09FFD002881
:10164000F6D12078400750D5594F3868C0050DD4E1
:10165000FFF702FCFFF76EFB064604E0FFF76AFBAC
:10166000801B022851D83868C005F7D5A06801282A
:1016700016D00528D5F8900017D020F00100C5F845
:101680009000D5F8900020F0040000BFC5F890004D
:10169000A06841F28836C8B1FFF74CFB07460EE060
:1016A000D5F8900040F00100F0E740F00400C5F8E4
:1016B0009000F5E7FFF73EFBC01BB04225D8D5F8F8
:1016C0009000C0F340000028F4D00EE0FFF732FB9A
:1016D000074604E0FFF72EFBC01BB04215D8D5F833
:1016E0009000C0F340000028F4D1207840062CD5AB
:1016F000A06A0028D5F8980014D040F00100C5F881
:101700009800FFF717FB064605E083E0FFF712FBA2
:10171000801B02287ED8D5F89800C0F3400000282E
:10172000F4D012E020F00100C5F89800FFF702FBAA
:10173000064604E0FFF7FEFA801B02286AD8D5F8B7
:101740009800C0F340000028F4D1E06A90B300F0A4
:10175000FFFC0146E868E26A022A09D00C297BD026
:10176000286820F080702860FFF7E4FA044687E0DC
:10177000236B00F003029A4220D1636B00F07002E9
:101780009A421BD1A26BC0F306239A4216D1E36B97
:1017900000F478129A4211D1236C00F060629A42F0
:1017A0000CD100F0604006E0140000200C00002086
:1017B000000400585AE0626C90423ED00C2968D078
:1017C0002868400165D4286820F080702860FFF701
:1017D000B1FA064605E000BFFFF7ACFA801B02280D
:1017E0004BD828688001F7D4D4E90C010843D4E928
:1017F0000E2141EA02210843216C0843616C084331
:10180000E968254A11400843E860286840F0807084
:10181000286000E031E0E86840F08050E860FFF7C1
:1018200089FA044605E000BFFFF784FA001B02288E
:1018300023D828688001F7D529E02868800126D4BC
:10184000286840F080702860E86840F08050E860C8
:10185000FFF770FA044606E01BE000BFFFF76AFAE4
:10186000001B022809D828688001F7D50FE000BFC7
:10187000FFF760FA001B022802D90320BDE8F081BF
:1018800028688001F4D4E86804490840E860002032
:10189000F4E70120F2E700008C80C111FCFFFEEEAE
:1018A0007047000038B5016804464A688868C0433C
:1018B000430606D5C30704D1D3435B0601D4E16CCC
:1018C00005E0830708D4D3431B0605D4216D01B07E
:1018D0002046BDE830400847830603D5430601D5BE
:1018E000C30551D4D3439B064ED443060AD494F87F
:1018F0005D30032B49D0236E43F004032366CB688D
:101900008B680093830609D4236E43F0010323669A
:101910008B6800930B6823F040030B60C00506D46E
:10192000206E40F008002066206880680090206EDD
:10193000002829D02068416821F0E00141600120A1
:1019400084F85D00900701D4D00722D02068416858
:1019500021F003014160114DA06D40B18563A06D80
:10196000FEF786FF18B1206E40F040002066606DE3
:10197000002809D08563606DFEF77AFF002803D048
:10198000206E40F04000206638BDC868886800902E
:1019900038BD2046FFF784FF38BD000061280008ED
:1019A00070B5040009D0606A002540B12561656109
:1019B000A56294F85D0040B10CE0012070BD606844
:1019C000B0F5827FF4D0E561F2E784F85C50204600
:1019D00000F056F8022084F85D002068016821F0CC
:1019E00040010160E1684FF4E062914201D90020BA
:1019F00001E04FF48050B1F5706F02D0914200D0F9
:101A0000A562A188228901F4827102F40442114383
:101A1000227C02F002021143227D02F001021143F6
:101A2000228B02F400721143227F02F0380211432C
:101A300094F8202002F080021143228D02F400521B
:101A4000114322681160A169042202EA114194F84D
:101A5000242000F4805002F01002114394F8342046
:101A600002F008021143A28902F47062114301439B
:101A7000206841602566012084F85D00002070BD6B
:101A800070B586B0064614216846FEF794FC2249DC
:101A9000306888423DD14FF0B041086E40F480502C
:101AA0000866086E00F480500590C86C40F0020093
:101AB000C864C86C002500F0020005903820009032
:101AC0000220CDE90105032003900520049069461A
:101AD0001248FFF71DF8134C114820600720606082
:101AE0001020C4E902058020C4E90405A561E56170
:101AF00020462562FEF752FF08B1FEF727FD746508
:101B0000002211462220A662FFF76CF92220FFF77F
:101B10005CF906B070BD00000030014000040048D0
:101B2000080002400C0200202DE9F84F98461646A6
:101B30008A460446FFF7FEF8814694F85D000128C6
:101B400020D1BAF1000F6FD0002E6DD094F85C0058
:101B5000012817D0012784F85C70032084F85D0009
:101B600000252566C4F838A0A687E6872564A4F872
:101B70004450A4F846502565E564A068B0F5004FD0
:101B800003D00CE00220BDE8F88F2068016821F046
:101B9000400101602068016841F4804101602068D3
:101BA0000168490603D4016841F040010160E06822
:101BB000B0F5E06F606826D908B1012E1FD1A06B87
:101BC00021680088C86006E020688168890709D517
:101BD000A16B0988C160A06B801CA063E08F401ED0
:101BE000E0870CE0FFF7A6F8A0EB0901414503D31D
:101BF000B8F1FF3F03D04BE0B8F1000F48D0E08FC1
:101C00000028E1D139E008B1012E33D1E08F01285D
:101C1000A06B03D921680088C86010E021680078B3
:101C2000087314E0E08725E043E0206881688907B5
:101C300013D5E18F0129A16B07D90988C160A06B79
:101C4000801CA063E08F801EECE709780173A06B15
:101C5000401CA063E08F401EE4E7FFF76BF8A0EBA9
:101C60000901414503D3B8F1FF3F03D010E0B8F1BB
:101C7000000F0DD0E08F0028D7D14A4641462046BC
:101C800000F03FFE08B120202066A06830B109E0D6
:101C900084F85D7084F85C50032074E72068C168A4
:101CA0008068009084F85D7004F85C5F60680028CC
:101CB000F3D0012067E7000070B5044690F85D009E
:101CC00001281ED1D9B1D2B194F85C00012818D0F6
:101CD000012084F85C00032384F85D30002525662C
:101CE000A163A287E28725642565E564A4F84450D2
:101CF000A4F84650A168B1F5004F04D00DE00120D2
:101D000070BD022070BD21680A6822F040020A609E
:101D100021680A6842F480420A60626D28491163B2
:101D2000626D2849D162626D27495163616D8D638F
:101D300021684A6822F480424A60E168B1F5E06FA8
:101D400010D8616D8969B1F5806F0BD1E18FC9073A
:101D500017D021684A6842F480424A60E18F00EB64
:101D60005100E087E38F2268A16B0C32606DFEF7B3
:101D700077FE70B1206E40F01000206684F85C5051
:101D8000BDE72068416821F480414160E08F400850
:101D9000E7E720680168490603D4016841F0400183
:101DA000016084F85C502068416841F02001416086
:101DB0002068416841F002014160002070BD0000D0
:101DC000952800089F2800087328000870B512495C
:101DD000884220D101224FF09045D1032846FEF7DA
:101DE000A4FF0E4C606811F099F930B14FF4807186
:101DF0002846FEF792FF0120A060E168002521B18E
:101E0000074828F081FFE56000E025706068BDE8C4
:101E1000704011F088B970BDA8010020CC000020EE
:101E200060500220704710B5401EB0F1807F01D392
:101E3000012010BD4FF0E02460610F21601700F019
:101E400072FF0020A06107202061002010BD7047B4
:101E50007047704710B5040003D094F83D0010B1EE
:101E600007E0012010BD002084F83C00204600F06F
:101E700023F8022084F83D00211D206800F0DAFEDE
:101E8000012084F8480084F83E0084F83F0084F87C
:101E9000400084F8410084F8420084F8430084F84C
:101EA000440084F8450084F8460084F8470084F82C
:101EB0003D00002010BD000008B500680B498842B5
:101EC00013D14FF0B040016E41F400310166006E55
:101ED000002200F40030009011461920FEF782FF26
:101EE000BDE808401920FEF770BF08BD004401405E
:101EF00090F83D10012901D001207047022180F89F
:101F00003D100168CA6842F00102CA6000680A49CF
:101F1000884202D0B0F1804F07D18168074A114052
:101F2000062906D0B1F5803F03D0016841F00101D8
:101F30000160002070470000002C014007000100F4
:101F400070472DE9F04104460068C66805694FF006
:101F50000007A90713D5B10711D5F91E01610120AA
:101F60002077206880698007204602D0FFF7E8FFCD
:101F700004E000F08BF8204600F089F82777680726
:101F800016D5700714D521686FF00400086102208F
:101F900020772068806910F4407F204602D0FFF748
:101FA000CFFF04E000F072F8204600F070F82777C9
:101FB000280715D5300713D521686FF00800086190
:101FC000042020772068C0698007204602D0FFF7F0
:101FD000B7FF04E000F05AF8204600F058F82777E1
:101FE000E80616D5F00614D521686FF010000861D8
:101FF000082020772068C06910F4407F204602D076
:10200000FFF79EFF04E000F041F8204600F03FF8A3
:102010002777E80708D0F00706D021686FF00100A5
:102020000861204600F034F8280601D4A80408D539
:10203000300606D521686FF4025008612046FFF78C
:1020400007FFE80508D5300606D521686FF48070D3
:1020500008612046FFF7FBFE680608D5700606D526
:1020600021686FF040000861204600F012F8A806D1
:102070000AD5B00608D521686FF020000861204617
:10208000BDE8F041FFF7E5BEBDE8F081704770475D
:1020900070477047FEE700000A4601464FF47A7326
:1020A0000148FFF741BD0000A8010020F1B50F4C29
:1020B000002202212046FEF738FE4FF400454FF083
:1020C0009046002229463046FEF72FFE0121684641
:1020D000FFF7E2FF012229463046FEF726FE0122E5
:1020E00002212046FEF721FEF8BD0000000C00484A
:1020F00031B5012202210B48FEF717FE4FF40044D0
:102100004FF09045002221462846FEF70EFE0121A1
:102110006846FFF7C1FF012221462846FEF705FE6B
:1021200038BD0000000C004808B54FF0B0418A6C83
:1021300002438A64896C0140009108BD08B54FF0E4
:10214000B041CA6C0243CA64C96C0140009108BD29
:102150004FF0B040806800F00C0070474FF0B04185
:102160004A6822F0FE4242EA0060486070474FF041
:10217000B040D0F89000C0F3400070474FF0B0403E
:10218000D0F89400C0F3400070474FF0B0400068B2
:1021900000F0F000B02800D9B02070474FF0B040F8
:1021A0000068C0F3400070474FF0B0414A6822F425
:1021B0007F4242EA0020486070474FF0B0410A6811
:1021C00022F0F00202430A6070474FF0B04001680D
:1021D00021F08061016070474FF0B040016841F02C
:1021E0008061016070474FF0B0400068C0F3C0608C
:1021F00070474FF0B040C06800F0030070474FF0E8
:10220000B04151F8882F22F0406202430A607047C3
:1022100010B54FF0B04151F8883F4FF47F2202EAE9
:102220001014A34302EA001003430B6010BD4FF0EB
:10223000B04151F8882F030C1B049A4342EA004036
:10224000086070474FF0B04151F8882F22F04042AB
:1022500002430A607047000010B56F4C012211461E
:102260002046FEF762FD7820FEF740FC00220121A7
:102270002046FEF75AFD6420FEF738FC0122114685
:102280002046FEF752FD7820FEF730FC0020FFF7D5
:102290000DFF0A20FEF72AFC1120FFF707FF782028
:1022A000FEF724FC3620FFF701FF0020FFF720FF98
:1022B0003A20FFF7FBFE0520FFF71AFFB220FFF7D9
:1022C000F5FE0C20FFF714FF0C20FFF711FF002094
:1022D000FFF70EFF3320FFF70BFF3320FFF708FF58
:1022E000B720FFF7E3FE3520FFF702FFBB20FFF723
:1022F000DDFE3620FFF7FCFEC020FFF7D7FE2C20C6
:10230000FFF7F6FEC220FFF7D1FE0120FFF7F0FE37
:10231000C320FFF7CBFE1220FFF7EAFEC420FFF731
:10232000C5FE2020FFF7E4FEC620FFF7BFFE0F200A
:10233000FFF7DEFED020FFF7B9FEA420FFF7D8FE9E
:10234000A120FFF7D5FEE020FFF7B0FED020FFF779
:10235000CFFE0020FFF7CCFE0520FFF7C9FE0E20C0
:10236000FFF7C6FE1520FFF7C3FE0D20FFF7C0FEE6
:102370003720FFF7BDFE4320FFF7BAFE4720FFF7E7
:10238000B7FE0920FFF7B4FE1520FFF7B1FE1220BB
:10239000FFF7AEFE1620FFF7ABFE1920FFF7A8FEF1
:1023A000E120FFF783FED020FFF7A2FE0020FFF719
:1023B0009FFE0520FFF79CFE0D20FFF799FE0C20E5
:1023C000FFF796FE0620FFF793FE2D20FFF790FE05
:1023D0004420FFF78DFE4020FFF78AFE0E20FFF716
:1023E00087FE1C20FFF784FE1820FFF781FE1620D1
:1023F000FFF77EFE1920FFF77BFE2920FFF756FE30
:102400007820FEF773FB2C20FFF750FEBDE810404C
:102410007820FEF76BBB0000000C004810B50420CC
:10242000FFF782FE0120FFF77FFE184816494FF4A0
:10243000804201600021C0E901124022C260802276
:10244000C0E904218161C1610162FEF7A7FA08B108
:10245000FEF77CF8002211460B20FEF7C3FC0B2090
:10246000FEF7B3FC002211460C20FEF7BBFC0C204B
:10247000FEF7ABFC002211460D20FEF7B3FCBDE8D1
:1024800010400D20FEF7A1BC3000024048010020A2
:102490002DE9F04786B014216846FDF78CFF042033
:1024A000FFF74CFE0220FFF749FE0120FFF746FE32
:1024B0001020FFF743FE0820FFF740FE4FF0904A40
:1024C000002220215046FEF730FCDFF88C804FF4CC
:1024D0008057002239464046FEF727FCDFF87C9003
:1024E000002203214846FEF720FC0324202001257A
:1024F000002603948DE8610069465046FEF708FB0C
:10250000E80303948DE8610069465046FEF700FB3E
:10251000CDE90264CDE9007569464046FEF7F8FA58
:102520008DE87000694648460394FEF7F1FA0122EF
:1025300039464046FEF7F9FB012220215046FEF7BE
:10254000F4FB280203948DE8610069465046FEF7CB
:10255000DFFA06B0BDE8F08700080048000C00482C
:10256000124810B5104901604FF48271416000219A
:102570004FF4E062C0E902120222026101224261CC
:102580005202C0E9062101620A224162C0E90A1230
:1025900001634163FFF704FA002803D0BDE810404F
:1025A000FDF7D4BF10BD000000300140A80100209D
:1025B0000C4810B50A4901603F214160002140F2FA
:1025C000E732C0E90212016141618161FFF742FC1B
:1025D000002803D0BDE81040FDF7B8BF10BD0000D3
:1025E00000440140CC020020FEE7FEE7704700B542
:1025F00095B050216846FDF7DEFE4FF40050009084
:1026000000201290102013906846FEF72DFC002841
:1026100001D072B6FEE715B000BD2DE9F0410646C7
:102620000025FFF7D2FDFEF785FB044604E0FEF728
:1026300081FB001B02281DD8FFF7D5FD0028F6D12D
:102640004FF0B0442069316820F4FE4040EA012098
:1026500020612069716820F4781008432061FFF739
:10266000BBFDFEF767FB074606E0FEF763FBC01BFA
:10267000022801D9032507E0FFF7B5FD0128F4D1B1
:1026800020693169084320612846BDE8F0812DE9C1
:10269000F04106460025FFF798FDFEF74BFB044688
:1026A00004E0FEF747FB001B02281DD8FFF79BFD47
:1026B0000028F6D14FF0B0442069316820F4FE4084
:1026C00040EA012020612069B16820F06060084381
:1026D0002061FFF781FDFEF72DFB074606E0FEF7C0
:1026E00029FBC01B022801D9032507E0FFF77BFD6A
:1026F0000128F4D120693169084320612846BDE8EA
:10270000F0812DE9F04106460025FFF75EFDFEF75A
:1027100011FB044604E0FEF70DFB001B02281DD848
:10272000FFF761FD0028F6D14FF0B0442069316811
:1027300020F4FE4040EA012020612069F16820F089
:10274000604008432061FFF747FDFEF7F3FA0746B4
:1027500006E0FEF7EFFAC01B022801D9032507E0C7
:10276000FFF741FD0128F4D1206931690843206158
:102770002846BDE8F081000070B5214A8EB00DF109
:10278000100C78CA8CE8780038CA08AE86E83800A1
:102790003CCA8DE83C000024B1F5007F6A46214622
:1027A00007D008AB53F8215085420BD352F8214093
:1027B0000BE004AB53F821508542F7D2491C0429A1
:1027C000F8D302E0491C0329ECD30E4E306820F008
:1027D000070020433060FEF7ADFA054608E000BF71
:1027E000FEF7A8FA401B022802D903200EB070BDE4
:1027F000306800F00700A042F2D10020F6E70000A8
:102800000CEC02080040005810B50F49B02801D95F
:10281000C86A03E03C2202EA900008584FF0B04139
:10282000D1F80811094A01F00F0152F82110B0FB4C
:10283000F1F4FEF709FB01460548B4FBF0F0BDE8F2
:102840001040FFF799BF000078EC020838EC02084E
:1028500040420F000148FFF725B80000A801002002
:1028600010B5806A0021A0F84610C187FFF718F85C
:1028700010BD10B5806A01684A6822F003024A6000
:10288000016E41F010010166012180F85D10FFF733
:1028900007F810BD10B5806AFFF7C4FA10BD38B54F
:1028A0000546846AFEF746FA0246286800688006F4
:1028B00023D42068416821F02001416020684168EC
:1028C00021F0020141606421204600F01AF818B19D
:1028D000206E40F020002066A068002118B9206812
:1028E000C26880680090E187012084F85D00206E56
:1028F00018B12046FEF7D4FF38BD2046FFF766FA30
:1029000038BDF8B515460E460B4600920446002227
:102910004FF4C05100F01AF888B9334600228021E4
:102920002046009500F082F848B9334600224FF463
:10293000C0612046009500F009F8002804D0206E00
:1029400040F0200020660320F8BD00002DE9FE4F76
:102950004FF0000A984617460E4604460C9D8DF827
:1029600004A0FEF7E7F9411BA8EB0105FEF7E2F929
:10297000814620684FF4C06B0C3002902A480068F2
:10298000C0EBC00000EB8000000D6843009043E006
:102990005E4506D12FB9029800788DF804009DF8A5
:1029A0000400B8F1FF3F37D0FEF7C4F9A0EB0900EF
:1029B000A84203D215B1009858B32BE020684168B3
:1029C00021F0E00141606068B0F5827F0BD1A06822
:1029D000B0F5004F02D0B0F5806F04D120680168D7
:1029E00021F040010160A06AB0F5005F09D12068C4
:1029F000016821F4005101602068016841F4005130
:102A00000160012084F85D0084F85CA00320BDE82B
:102A1000FE8F0025401E0090206880683040B8423C
:102A2000B6D10020F3E70000140000202DE9F843A0
:102A30001E46914688460446089DFEF77BF9401BDA
:102A4000351AFEF777F9074625480068C0F3CB3002
:102A5000684338E0701C37D0FEF76CF9C01BA84201
:102A600003D215B1009860B32CE02068416821F0D2
:102A7000E00141606068B0F5827F0BD1A068B0F5DD
:102A8000004F02D0B0F5806F04D12068016821F0BA
:102A900040010160A06AB0F5005F09D120680168BB
:102AA00021F4005101602068016841F40051016087
:102AB000012084F85D00002084F85C000320BDE85C
:102AC000F8830025401E00902068816838EA0100E4
:102AD00004D000214945BDD10020F0E70121F9E7EC
:102AE000140000207047000070B50B480B4E002406
:102AF000D0F8005006EB0411087B40B988684A689A
:102B0000281A904203D38D60096828468847641CC0
:102B1000052CEFDB70BD000018000020180300201A
:102B2000FEF714B902480168491C016070470000B3
:102B30001800002010B59AB048216846FDF73BFC0C
:102B40001C2112A8FDF737FC1D48016821F4C06163
:102B500041F4007101600068032400F4C060199022
:102B60004FF48030CDE900400012039040200490E3
:102B70000220CDE90B0410200D9008200E90800358
:102B80000F9000031190001110906846FEF7D0FBE3
:102B900008B172B6FEE76F20CDE912040020802153
:102BA000CDE91601149015901890032112A8FEF794
:102BB00065FA002801D072B6FEE71AB010BD000019
:102BC000000400581348016841F4700101604FF09F
:102BD000B040016841F0010101604FF4E0218160E3
:102BE00001680D4A11400160D0F8941021F00501F0
:102BF000C0F89410D0F8981021F00101C0F8981096
:102C00000649C1600161016821F480210160002151
:102C10008161704788ED00E0FBFEF6FA00100422A7
:102C200010B5FFF77FFFBDE810400148FFF789B9F5
:102C3000CC02002070B50268184B4FF080469842D5
:102C400001D0B04203D122F070044A682243144CF0
:102C5000144D984205D0B04203D0A04201D0A84202
:102C600003D122F44076CA6832434E6922F08002D2
:102C700032438E68C6620E688662984203D0A042D4
:102C800001D0A84201D109690163016841F0040142
:102C9000016001214161026070BD0000002C014013
:102CA000004401400048014010B5044C012020734D
:102CB00021F07CFD0020207310BD000018030020CF
:102CC00001480021017770471803002002480021C5
:102CD00080F82C10704700001803002002480021E3
:102CE00080F83C10704700001803002002480021C3
:102CF00080F84C10704700001803002030B50748DA
:102D000007493CC83CC13CC83CC13CC83CC13CC86C
:102D10003CC11DC881E81D0030BD0000B8EC0208B0
:102D200018030020FEE70907090E002804DB00F164
:102D3000E02080F80014704700F00F0000F1E02060
:102D400080F8141D704770B5044600256FF02F06FB
:102D500008E02068411C2160007805EB850106EB46
:102D6000410145182068007800F02CF80028F0D1C7
:102D7000284670BD70B514460D461BB9114611F0BA
:102D800051F9034603FB05F0142C0ED0E11F032973
:102D90000AD8072C0DD0082C0DD0092C0DD00A2CE8
:102DA0000DD0002100EB810070BD590801FB05002A
:102DB00070BD0221F6E70421F4E71021F2E74FF499
:102DC0008071EFE73038092801D8012070470020D2
:102DD00070472DE9FC5F9B460CAB8A468146DDE9D6
:102DE000116093E81210DDE90F575FEA80784FF029
:102DF00030031AD45EB15FEAC07808D000F00C0846
:102E000058EA0C0803D0761E01E00B55641CBC4246
:102E100004D2202CF9D301E00B55641C5FEAC07882
:102E200003D0B44201D2202CF6D35FEAC06825D586
:102E30005FEA40580AD44CB1BC4201D0B44205D13B
:102E4000641E03D0102D03D1641E04E0102D02D0A7
:102E5000022D0AD00EE0850603D4202C1ED2782540
:102E600006E0202C1AD2582502E0202C16D262252A
:102E70000D55641C202C11D20B55641C202C0DD236
:102E8000BCF1000F01D02D2306E0430701D52B2311
:102E900002E0030702D520230B55641CCDE900BADC
:102EA000C846154681468B46AA46800714D1274658
:102EB00007E02A46DDE900316D1C2020C446E047CA
:102EC0007F1CB742F5D307E02A466D1C641EDDE97E
:102ED00000311BF80400C047002CF5D15FEA89706F
:102EE00006D409E02A46DDE900316D1C2020C047E8
:102EF000A5EB0A00B042F5D32846BDE8FC9F2DE9BA
:102F0000F04F8FB099468B46DDE91818DDE91C6358
:102F1000DDE91A4792468646002209B923F01003DC
:102F2000580507AD00D5C9B1B1FBF4F004FB101092
:102F3000C0B20A2801D2303009E05FEA836C02D5C2
:102F40004FF0410C01E04FF0610C60440A38B1FBD6
:102F5000F4F1A854521C09B1202AE5D3CDF8088019
:102F6000CDE90563CDE90052CDE903474B46524612
:102F700059467046FFF72DFF0FB0BDE8F08F2DE9E1
:102F8000FF4F8FB01CACDDE9239594E8030820AC1B
:102F900094E8C004002450EA010201D125F0100594
:102FA0006A050DF11C0802D550EA010217D032461D
:102FB0003B46FDF733F9D2B20A2A01D2303206E09D
:102FC000AB0601D5412300E061231A440A3A08F810
:102FD0000420641C50EA010201D0202CE7D3CDE983
:102FE0000084CDF808B0CDE90595CDE9036A0FAFAF
:102FF00097E80F00FFF7EDFE13B0BDE8F08F9A429F
:1030000000D288547047704770B50D46040011D047
:103010008DB100F0C0FE00280BD0616800690EF091
:1030200045FE0646E16B28468847E1680844E060B3
:10303000304670BDFEE7FEE72DE9FF4114460E461F
:1030400005460A461F4621466846DDF828800DF0F1
:103050005CFB00281BD0019861682268411A08FBBC
:1030600001500099891A0D18009831683844441AA3
:1030700068460DF038FB002107E0625C6B5C1A4487
:10308000FF2A00D9FF226254491C8142F5D3BDE8D2
:10309000FF8110B502004FF000000CD04B1E19420A
:1030A00000D0FEE70A44521E9A43B2F5003F02D216
:1030B0000C2A01D9104610BD0C2010BD2DE9F04F8F
:1030C000064691B0D6E90170804696F821B0356881
:1030D000F0680F90D6E906400E90D6E904A009905A
:1030E0000AA80FF03EFE96F8220008B10020C9E0C1
:1030F000BAF1000F05D0BBF1FD0F4FF0000066D212
:103100008DE0BBF1FD0F4FF0000017D21CE0002650
:103110000CE000BF04EB460005EB46010088ADF86B
:1031200004000AAA01980FF083FB761CBE42F1DB73
:103130000F9805440E98044409F10100814640456A
:10314000E5DB11B0BDE8F08F81464045F9DA002695
:1031500013E000BF04EB46000088ADF804009DF8C2
:10316000051011FB0BF0000A8DF8050005EB460178
:103170000AAA01980FF05CFB761CBE42EADB0F98AE
:1031800005440E98044409F10100DDE7002614E02F
:1031900004EB46000088ADF808009DF809101AF805
:1031A000060011FB00F0000A8DF8090005EB46014E
:1031B0000AAA02980FF03CFB761CBE42E8DB0F988F
:1031C000099905440E988A44044409F10100814696
:1031D0004045DBDBB5E7002617E000BF04EB460007
:1031E0000088ADF808009DF809101AF8060011FBD8
:1031F00000F101FB0BF1080C8DF8090005EB46010D
:103200000AAA02980FF014FB761CBE42E6DB0F9868
:10321000099905440E988A44044409F10100814645
:103220004045D8DB8DE700201EE000BF04EB4900DD
:10323000BAF1000F0088ADF8080027D09DF80920EA
:103240001AF8090012FB00F101FB0BF15FEA1140D3
:103250008DF8090096F8222005EB49000AAB029987
:1032600001F086FD09F101008146B842DEDBBAF1CA
:10327000000F01D009998A440F9805440E98044420
:103280000398401C03904045CDDB5AE79DF8091098
:1032900011FB0BF0000ADBE72DE9F04F064695B075
:1032A000D6E90170804696F821B03568F0680E9036
:1032B000D6E906400C90D6E904900A9096F82200D0
:1032C00020B110A80FF061FD0020D0E0B9F1000F8F
:1032D00005D0BBF1FD0F4FF0000064D289E0BBF1D7
:1032E000FD0F4FF0000019D21EE000BF4FF00009A3
:1032F0004E460BE004EB460005EB8901427814F8DA
:1033000016000FF0E6FB09F10109761CBE42F1DB65
:103310000E9805440C9804440AF101008246404589
:10332000E4DB15B0BDE8F08F82464045F9DA4FF096
:1033300000094E460FE000BF04EB4600417811FB48
:103340000BF0020A05EB890114F816000FF0C1FB1F
:1033500009F10109761CBE42EEDB0E9805440C987B
:1033600004440AF10100DFE74FF0000A564610E07E
:1033700004EB4600417819F8060011FB00F0020A40
:1033800005EB8A0114F816000FF0A3FB0AF1010AFD
:10339000761CBE42ECDB0E980A9905440C988944D1
:1033A00004440BF1010083464045DDDBB9E700BF73
:1033B0004FF0000A564612E004EB4600417819F837
:1033C000060011FB00F000FB0BF0020C05EB8A017C
:1033D00014F816000FF07DFB0AF1010A761CBE42BC
:1033E000EADB0E980A9905440C9889440444059830
:1033F000401C05904045DBDB93E70020039028E06C
:1034000014F81A100298B9F1000F61F3174061F334
:103410000F2061F3070004EB4A012CD0039A4B788C
:1034200019F8021013FB01F101FB0BF15FEA1141E6
:1034300061F31F600290039896F8222005EB80004C
:1034400010AB029901F0BAFC0398401C03900AF1FA
:1034500001008246B842D3DBB9F1000F01D00A98CF
:1034600081440E9805440C9804440598401C05902E
:103470004045C2DB55E74A7812FB0BF1090AD7E752
:103480002DE9F04F054687B0D5E9016790F821B0E6
:1034900000680090E8680290D5E906400390D5E9FD
:1034A00004900490686AC11700EB517121F0070184
:1034B000A0EB010A95F8220008B1002029E1B9F13A
:1034C000000F05D0BBF1FD0F4FF0000070D2E2E01D
:1034D000BBF1FD0F4FF000002ED233E04FF000089B
:1034E00045461FE008EB0A018B46009807F0B7FA43
:1034F000C0EB00208DF8040004EB450001A94278E0
:1035000014F815000FF002FB9DF8040059467F28BF
:10351000009802D926F0EEFC01E002F065FE08F109
:1035200001086D1CB542DDDB02990098084400904B
:103530000398044409F101008146B842CEDB07B08C
:10354000BDE8F08F8146B842F9DA4FF000084546F1
:1035500023E000BF08EB0A010191009807F07FFA11
:10356000C0EB00208DF8100004EB4500417811FB02
:103570000BF0020A14F8150004A90FF0C7FA9DF821
:1035800010007F28DDE9000102D926F0B3FC01E03C
:1035900002F02AFE08F101086D1CB542DADB009941
:1035A0000298084400900398044409F10100C9E717
:1035B00035E000BF4FF00008454624E008EB0A0163
:1035C0000191009807F04BFAC0EB00208DF8140031
:1035D00004EB4500417819F8050011FB00F0020AE0
:1035E00014F8150005A90FF091FA9DF814007F2832
:1035F000DDE9000102D926F07DFC01E002F0F4FDD6
:1036000008F101086D1CB542D8DB02990098084406
:10361000009003980499044489440BF10100834607
:10362000B842C7DB8BE700BF4FF00008454626E0F5
:1036300008EB0A010191009807F011FAC0EB002095
:103640008DF8140004EB4500417819F8050011FBD2
:1036500000F101FB0BF10A0C14F8150005A90FF09D
:1036600055FA9DF814007F28DDE9000102D926F003
:1036700041FC01E002F0B8FD08F101086D1CB54203
:10368000D6DB0299009808440090039804990444FA
:1036900006988944401C0690B842C5DB4FE70020DD
:1036A000059026E014F818100198B9F1000F61F3A5
:1036B000174061F30F2061F3070004EB48012CD0A1
:1036C0004B7819F8081013FB01F101FB0BF1090C01
:1036D00061F31F600190059895F8223000EB0A0114
:1036E000DDE9000201F0BDFB0598401C059008F1E2
:1036F00001008046B042D5DBB9F1000F01D004993A
:10370000894400990298084400900398044406985C
:10371000401C0690B842C2DB11E74A7812FB0BF15D
:10372000090AD5E72DE9F04F064691B0D6E90170B8
:10373000804696F821B03568F0680F90D6E90640CB
:103740000D90D6E904900B9096F8220008B1002065
:10375000C7E0B9F1000F05D0BBF1FD0F4FF000003D
:1037600063D288E0BBF1FD0F4FF0000018D21DE0DE
:103770004FF000094E460BE004EB460005EB090153
:10378000427814F816000FF0CFF909F10109761C00
:10379000BE42F1DB0F9805440D9804440AF1010084
:1037A00082464045E4DB11B0BDE8F08F82464045DB
:1037B000F9DA4FF000094E460FE000BF04EB460077
:1037C000417811FB0BF0020A05EB090114F8160011
:1037D0000FF0AAF909F10109761CBE42EEDB0F9841
:1037E00005440D9804440AF10100DFE74FF0000A98
:1037F000564610E004EB4600417819F8060011FB2C
:1038000000F0020A05EB0A0114F816000FF08CF91B
:103810000AF1010A761CBE42ECDB0F980B990544B5
:103820000D98894404440BF1010083464045DDDBDB
:10383000B9E700BF4FF0000A564612E004EB46001D
:10384000417819F8060011FB00F101FB0BF10A0C9D
:1038500005EB0A0114F816000FF066F90AF1010AE7
:10386000761CBE42EADB0F980B9905440D988944FB
:1038700004440498401C04904045DBDB93E700209F
:10388000039020E014F81A100098B9F1000F61F3CA
:10389000174061F30F2061F3070026D0039A19F84F
:1038A000022012FB0BF1090A61F31F6000900398DC
:1038B00096F822202844009901F00CFB0398401C44
:1038C00003900AF101008246B842DBDBB9F1000F38
:1038D00001D00B9881440F9805440D980444049836
:1038E000401C04904045CADB5DE76BF31F60DDE7D9
:1038F0002DE9F04F804687B0D8E90170814698F8ED
:1039000021B0D8F80040D8F80C000290D8E9065051
:103910000190D8E904A0039098F8220008B1002093
:1039200032E1BAF1000F05D0BBF1FD0F4FF00000FE
:1039300067D28CE0BBF1FD0F4FF000001AD21FE000
:103940000026B0460EE000BF05EB480034F8161024
:10395000427815F818000FF071F824F8160008F1F5
:103960000108761CBE42EFDB02980444019805442E
:103970000AF1010082464845E2DB07B0BDE8F08F5E
:1039800082464845F9DA0026B04610E005EB4800CB
:10399000417811FB0BF0020A34F8161015F81800E4
:1039A0000FF04CF824F8160008F10108761CBE420E
:1039B000ECDB02980444019805440AF10100DFE7BA
:1039C0000026B04613E000BF05EB480041781AF826
:1039D000060011FB00F0020A34F8161015F8180062
:1039E0000FF02CF824F8160008F10108761CBE42EE
:1039F000EADB02980399044401988A4405440BF1D8
:103A0000010083464845DBDBB7E70026B04614E0FB
:103A100005EB48001AF80610407810FB01F101FB95
:103A20000BF10A0C34F8161015F818000FF006F810
:103A300024F8160008F10108761CBE42E8DB029863
:103A40000399044401988A4405440098401C00905E
:103A50004845DADB91E7002630460096049485E07D
:103A600015F8101098F82220C8088908012A1DD0DE
:103A7000022A4AD0032A80D1049A32F81620D30AA7
:103A800013FB00F34FEA531C4FF6FF7303EACC23FA
:103A9000C2F3451C1CFB01F1890903EB411102F043
:103AA0001F0212FB00F001EB50101BE0049A32F8E9
:103AB000162000EBD2231F2B00D31F234FF6FF7CD1
:103AC0000CEAC323C2F3451C61443F2900D33F21C4
:103AD00002F01F0203EB4111104489B21F2800D3EA
:103AE0001F20084480B2BAF1000F2BD01AF806202C
:103AF000BBF1FD0F30D2009905EB4101497812FB73
:103B000001F101FB0BF10A0C26E0049A32F81620B1
:103B1000C0EBD223002B00DC00234FF6FF7C0CEA25
:103B2000C323C2F3451CACEB0101002900DC0021DA
:103B300002F01F0203EB4111101A89B20028D0DCF9
:103B40000020CEE70099BBF1FD0F05EB41014A785B
:103B500002D212FB0BF10A0A34F816100EF04AFEDC
:103B600024F816000098001D761C0090BE42FFF657
:103B700077AF0298BAF1000F04440198054401D0D0
:103B800003998A440598401C05904845FFF663AFA9
:103B9000F3E600002DE9F34F064685B0D6E9017043
:103BA000804696F821B03568F0680190D6E9064065
:103BB0000090D6E90490039096F8220008B1002006
:103BC000CAE0B9F1000F05D0BBF1FD0F4FF00000C6
:103BD00063D288E0BBF1FD0F4FF0000018D21DE06A
:103BE0004FF000094E460BE004EB460005EB0901DF
:103BF000427814F816000EF051FF0698761C8144A6
:103C0000BE42F1DB01980544009804440AF101002A
:103C100082464045E4DB07B0BDE8F08F8246404570
:103C2000F9DA4FF000094E460FE000BF04EB460002
:103C3000417811FB0BF0020A05EB090114F816009C
:103C40000EF02CFF0698761C8144BE42EEDB0198F4
:103C50000544009804440AF10100DFE74FF0000A30
:103C6000564610E004EB4600417819F8060011FBB7
:103C700000F0020A05EB0A0114F816000EF00EFF20
:103C80000698761C8244BE42ECDB019803990544F9
:103C90000098894404440BF1010083464045DDDB74
:103CA000B9E700BF4FF0000A564612E004EB4600A9
:103CB000417819F8060011FB00F000FB0BF0020C34
:103CC00005EB0A0114F816000EF0E8FE0699761CC2
:103CD0008A44BE42EADB019803990544009889446E
:103CE00004440298401C02904045DBDB93E700202F
:103CF000029023E014F81A00B9F1000F60F30701F5
:103D000060F30F2160F3174104EB4A0029D0437898
:103D1000029819F8000013FB00F000FB0BF0000CF8
:103D200060F31F61029896F82220284401F0F8F809
:103D300006990298084402900AF101008246B842AE
:103D4000D8DBB9F1000F01D00399894401980544EB
:103D5000009804440498401C014604904045C6DB8A
:103D600059E7427812FB0BF0000AD9E708444A1ED3
:103D7000401E9043114200D0FEE7704710B540202E
:103D800018F002FD040005D04022002118F02DFE9D
:103D9000204610BDFEE72DE9FC410D4604002AD067
:103DA00055B304F1240080461DF0D9FC009008B3FF
:103DB0000769616838460DF079FF0646294638469E
:103DC000626818F057FD04F1300018F002FC019011
:103DD00098B10422694618F04DFD2046009907F07D
:103DE0003DFA042201A918F045FD214630466268DB
:103DF0000DF06CFF07E0FEE7FEE7404600991DF07E
:103E000078FC002000900098BDE8FC812DE9F0418D
:103E10000F460121002504462E46C16309E01A49D8
:103E20001EF04EFE08B16D1C02E0E06B401CE0632A
:103E3000761C57F8260010B101780029EFD1A06B4D
:103E4000A8421FD0206B002610B115F01BFA266384
:103E5000606B10B115F016FA6663280118F094FC37
:103E6000206338B1680018F08FFC606318B1216BD3
:103E700011B102E0FEE7FEE700256A00002118F01C
:103E8000B4FDA563BDE8F081FC17010810B5044638
:103E900090F85400E26BC107616C04D121B14B1C56
:103EA00018D0491E6164A9B90AB1C10712D02146D0
:103EB000144818F033FC00F027F8216909B12046B6
:103EC0008847616909B1204688472046BDE810400F
:103ED00015F0D8B9216C49426163002A10D0C1079E
:103EE00002D1A16B49426163411C61F3000084F877
:103EF0005400E16A606A6162E062206B2263E06301
:103F000010BD00001404002010B50A4C012084F8F4
:103F1000A40004F1AC0018F037FB0028D4F8A80086
:103F200003D0BDE8104020F0A3BDBDE8104020F054
:103F30008DBD0000680300202DE9F0413D4D95F84E
:103F4000A50038B15FF0000085F8A5003948AC3015
:103F5000074664E00120F7E7206D20F011FC616B5B
:103F60000844606320F012FC2065002085F8A4005E
:103F700094F8540095F8A510C0F340028A4254D03A
:103F800061F3410084F8540041071ED4616B00299D
:103F900041DB000709D4A16939B120468847616A2D
:103FA00001446162E16A0844E062204622F07CFD3F
:103FB000E16809B12046884794F8540040F00400B5
:103FC00084F85400204622F08FFC606B002822DB2E
:103FD000216B884200DD6163216A20468847A16A1F
:103FE0000646B1420DD0A662626812B13146206821
:103FF000904795F8A40088B9A2682AB131462046B6
:10400000904795F8A40048B9D4E90C0181420CDB33
:104010002046FFF73BFF95F8A40030B1384618F072
:10402000B3FA040098D1BDE8F0812146384618F073
:10403000BDFAF6E76803002070B5044640680D46F7
:1040400008B1FFF7F9FF2268002A04D0294620466C
:10405000BDE87040104770BD70B50D6806460C464F
:10406000286838B1296AC90204D520602146304643
:10407000FFF7F2FF214630462560BDE87040FFF7AC
:10408000DBBF0CF000B90CF043B900002DE9F04F94
:10409000064691B0D6E90170814696F82100089055
:1040A0003568F0680F90D6E906400E90D6E904B066
:1040B0000A900BA80EF055FE96F8220008B10020D9
:1040C000DFE00898BBF1000F04D0FD284FF000009E
:1040D00076D29FE0FD284FF0000021D226E000BFFD
:1040E0004FF0000814E000BF04EB880BDBF8000081
:1040F0000EF06CFB60F307069BF80310304661F38B
:104100000F2005EB48010BAA0EF092FB08F1010805
:10411000B845E9DB0F9805440E9804440AF1010004
:1041200082464845DCDB11B0BDE8F08F8246484549
:10413000F9DA002617E000BF04EB860BDBF800007D
:104140000EF044FB60F307089BF80310089811FB7E
:1041500000F0010A404661F30F2005EB46010BAA6F
:104160000EF066FB761CBE42E6DB0F9805440E9807
:1041700004440AF10100D9E7002617E004EB8601A8
:10418000079108680EF022FB079960F30708404684
:10419000CA781BF8061012FB01F1090A61F30F201F
:1041A00005EB46010BAA0EF043FB761CBE42E5DB95
:1041B0000F980A9905440E988B4404440AF10100B3
:1041C00082464845D8DBAEE7002619E004EB8600BE
:1041D000079000680EF0FAFA60F307080798C178B4
:1041E0001BF8060011FB00F008990BAA4843010CCC
:1041F000404661F30F2005EB46010EF019FB761CDB
:10420000BE42E3DB0F980A9905440E988B440444A0
:104210000AF1010082464845D6DB84E7002022E00F
:1042200004EB8A00029000680EF0D0FA414660F379
:1042300007010298BBF1000FC07860F30F2124D072
:104240001BF80A2010FB02F0089A50435FEA104066
:1042500060F30F2196F8222005EB4A000BAB00F02B
:1042600087FD0AF101008246B842D9DBBBF1000F9D
:1042700001D00A998B440F9805440E980444039882
:10428000401C03904845C9DB4DE7089A10FB02F03B
:10429000000ADDE72DE9F04F064693B0D6E901703C
:1042A000804696F821B03568F0681190D6E906404E
:1042B0001090D6E904A00B900CA80EF066FD96F8BD
:1042C000220008B10020C4E0BAF1000F05D0BBF114
:1042D000FD0F4FF0000066D28DE0BBF1FD0F4FF0F7
:1042E000000018D21DE000260DE000BF05EB860A95
:1042F00004EB8600DAF8001000680CAA0EF057FBF9
:10430000CAF80000761CBE42F0DB119805441098F4
:10431000044409F1010081464045E4DB13B0BDE8E7
:10432000F08F81464045F9DA002612E004EB860062
:104330000068020E12FB0BF1090A05EB860A61F315
:104340001F60DAF800100CAA0EF031FBCAF800006A
:10435000761CBE42EADB119805441098044409F12A
:104360000100DEE7002614E004EB86001AF80610D0
:104370000068020E12FB01F1090A05EB860B61F3DE
:104380001F60DBF800100CAA0EF011FBCBF8000048
:10439000761CBE42E8DB11980B99054410988A44BC
:1043A000044409F1010081464045DBDBB6E7002605
:1043B00017E000BF04EB86001AF806100068020E32
:1043C00012FB01F101FB0BF1090C61F31F6005EB1E
:1043D0008601079109680CAA0EF0E9FA0799761C84
:1043E0000860BE42E6DB11980B99054410988A4498
:1043F000044409F1010081464045D8DB8EE70020E6
:1044000019E000BF04EB8900BAF1000F016824D065
:104410001AF809000B0E13FB00F202FB0BF2100C52
:1044200060F31F6196F8222005EB89000CAB00F0C9
:10443000C5FC09F101008146B842E3DBBAF1000F87
:1044400001D00B998A4411980544109804440398AC
:10445000401C03904045D2DB60E70A0E12FB0BF0D4
:10446000000ADDE72DE9F04F054689B0D5E901677F
:1044700090F821B000680090E8680290D5E9064005
:104480000390D5E904900490686AC11700EB51715C
:1044900021F00701A0EB010A95F8220008B10020E5
:1044A0001BE1B9F1000F05D0BBF1FD0F4FF000008B
:1044B00071D2E3E0BBF1FD0F4FF000002FD234E0EA
:1044C000002522E004EB850BDBF800000EF07EF9FE
:1044D00005EB0A0104908946009806F0C0FAC0EB8B
:1044E00000208DF804009BF8032001A904980EF029
:1044F0000DFB9DF8040049467F28009802D925F05D
:10450000F9FC01E001F070FE6D1CB542DADB0099A8
:104510000298084400900398044408F10100804682
:10452000B842CDDB09B0BDE8F08F8046B842F9DA79
:10453000002525E004EB8500059000680EF046F9A3
:1045400005EB0A0104908946009806F088FAC0EB52
:1045500000208DF804000598C17811FB0BF0020AC9
:1045600001A904980EF0D2FA9DF8040049467F286C
:10457000009802D925F0BEFC01E001F035FE6D1C6B
:10458000B542D7DB02990098084400900398044490
:1045900008F10100C9E735E0002527E004EB8500BC
:1045A000069000680EF012F905EB0A0105908B46A3
:1045B000009806F054FAC0EB00208DF8040006982D
:1045C00019F80510C07811FB00F0020A01A905983E
:1045D0000EF09CFA9DF8040059467F28009802D9F5
:1045E00025F088FC01E001F0FFFD6D1CB542D5DB34
:1045F000029900980844009003980499044489445F
:1046000008F101008046B842C6DB8BE7002529E0AF
:1046100004EB8500079000680EF0D8F805EB0A015E
:1046200001910690009806F01AFAC0EB00208DF870
:104630001400079819F80510C07811FB00F000FB72
:104640000BF0020C05A906980EF060FA9DF8140014
:104650007F28DDE9000102D925F04CFC01E001F0E2
:10466000C3FD6D1CB542D3DB02990098084400904D
:10467000039804990444894408F101008046B84233
:10468000C4DB4FE7002018E004EB8800B9F1000F0D
:10469000026826D019F80800130E13FB00F000FB87
:1046A0000BF0000C60F31F6295F8223008EB0A0152
:1046B000009800F0D6FB08F101008046B042E3DB31
:1046C000B9F1000F01D00499894402990098084477
:1046D0000090039804440198401C0190B842D1DB3B
:1046E00020E7110E11FB0BF0000ADBE72DE9F04F7C
:1046F00006468FB0D6E90170804696F821B035683D
:10470000F0680D90D6E906400C90D6E904A0089018
:1047100096F8220008B10020B6E0BAF1000F05D0EB
:10472000BBF1FD0F4FF000005DD280E0BBF1FD0F4B
:104730004FF0000016D21BE000260BE004EB860AC7
:10474000DAF800000EF042F89AF80320A9190EF0EA
:10475000EBF9761CBE42F1DB0D9805440C9804443D
:1047600009F1010081464045E6DB0FB0BDE8F08F5E
:1047700081464045F9DA00260FE000BF04EB860AC7
:10478000DAF800000EF022F89AF8032012FB0BF181
:104790000A0AA9190EF0C8F9761CBE42EEDB0D9884
:1047A00005440C98044409F10100E1E7002610E0FB
:1047B00004EB860BDBF800000EF008F89BF80320F2
:1047C0001AF8061012FB01F10A0AA9190EF0ACF949
:1047D000761CBE42ECDB0D98089905440C988A447F
:1047E000044409F1010081464045DFDBBDE70026B6
:1047F00013E000BF04EB8601069108680DF0E6FFA8
:104800000699CA781AF8061012FB01F101FB0BF1A8
:104810000A0CA9190EF088F9761CBE42EADB0D9845
:10482000089905440C988A44044409F10100814622
:104830004045DCDB99E7002018E000BF04EB89006D
:10484000BAF1000F016823D01AF809000B0E13FB10
:1048500000F000FB0BF0000C60F31F6196F82220C3
:1048600005EB090000F036FB09F101008146B84272
:10487000E4DBBAF1000F01D008998A440D98054491
:104880000C9804440298401C02904045D3DB6CE72E
:104890000A0E12FB0BF0000ADEE700002DE9F04FD4
:1048A000804687B0D8E90170814698F821B0D8F8E1
:1048B0000040D8F80C000290D8E906500190D8E9E1
:1048C00004A0039098F8220008B100203AE1BAF160
:1048D000000F05D0BBF1FD0F4FF0000061D284E066
:1048E000BBF1FD0F4FF0000018D21DE00026B046CE
:1048F0000CE000BF05EB080034F81610C2780DF08C
:10490000F7FF24F8160008F10408761CBE42F1DB1C
:1049100002980444019805440AF101008246484582
:10492000E4DB07B0BDE8F08F82464845F9DA00269F
:10493000B0460EE005EB0800C27812FB0BF10A0A44
:1049400034F816100DF0D4FF24F8160008F104080E
:10495000761CBE42EEDB02980444019805440AF13D
:104960000100E1E70026B04611E000BF05EB0800BA
:104970001AF80610C27812FB01F10A0A34F8161070
:104980000DF0B6FF24F8160008F10408761CBE42AC
:10499000ECDB02980399044401988A4405440BF126
:1049A000010083464845DDDBBBE70026B04612E048
:1049B00005EB08001AF80620C17811FB02F101FB93
:1049C0000BF10A0C34F816100DF092FF24F81600C3
:1049D00008F10408761CBE42EADB02980444019800
:1049E0000544039882440098401C00904845DCDB55
:1049F00097E700260096049496E000BF98F82200FE
:104A0000012822D0022857D003288AD1049800997F
:104A10006A1830F816009178C30AC90813FB01F12F
:104A200049095278C902C0F34513920813FB02F2F8
:104A3000920901EB421100F01F020098285CC008A7
:104A400012FB00F001EB501024E0049800996A1862
:104A500030F816009178C30A03EBD1011F2900D367
:104A60001F214FF6FF7303EAC1215278C0F34513AB
:104A700003EB92023F2A00D33F2201EB421100F0E8
:104A80001F02009889B2285C02EBD0001F2800D3D7
:104A90001F20084480B2BAF1000F32D01AF8062065
:104AA000BBF1FD0F36D200992944C97812FB01F100
:104AB00001FB0BF10A0C2DE00498009A2A4430F80F
:104AC00016009378C10AA1EBD301002900DC002174
:104AD0004FF6FF7303EAC1235278C0F34511A1EBEF
:104AE0009201002900DC002100F01F02009803EB76
:104AF000411189B2285CA2EBD0000028C9DC00205B
:104B0000C7E70099BBF1FD0F2944CA7802D212FB16
:104B10000BF10A0A34F816100DF06CFE24F816009A
:104B20000098001D761C0090BE42FFF667AF029809
:104B3000BAF1000F04440198054401D0039882445F
:104B40000598401C05904845FFF653AFE9E6000084
:104B50002DE9F34F064685B0D6E90170804696F8F8
:104B600021B03568F0680190D6E906400090D6E99A
:104B70000490039096F8220008B10020BCE0B9F13F
:104B8000000F05D0BBF1FD0F4FF000005DD280E0BB
:104B9000BBF1FD0F4FF0000016D21BE04FF00009F3
:104BA0004E4609E004EB860005EB0901C2780DF0E2
:104BB000D8FE0699761C8944BE42F3DB0198054471
:104BC000009804440AF1010082464045E6DB07B044
:104BD000BDE8F08F82464045F9DA4FF000094E46B5
:104BE0000DE000BF04EB8600C27812FB0BF10A0A4D
:104BF00005EB09010DF0B5FE0699761C8944BE420D
:104C0000F0DB01980544009804440AF10100E1E753
:104C10004FF0000A56460EE004EB860019F8061025
:104C2000C27812FB01F10A0A05EB0A010DF099FEA8
:104C30000699761C8A44BE42EEDB0198039905442E
:104C40000098894404440BF1010083464045DFDBB2
:104C5000BDE700BF4FF0000A564610E004EB8600A7
:104C600019F80610C27812FB01F101FB0BF10A0CD6
:104C700005EB0A010DF075FE0699761C8A44BE42CA
:104C8000ECDB019803990544009889440444029898
:104C9000401C02904045DDDB99E7002002901DE0BA
:104CA00004EB8A00B9F1000F016829D0029A0B0EBB
:104CB00019F8020013FB00F000FB0BF05FEA104054
:104CC00060F31F61029896F82220284400F028F92A
:104CD00006990298084402900AF101008246B842FF
:104CE000DEDBB9F1000F01D0039989440198054436
:104CF000009804440498401C04904045CDDB66E7CE
:104D00000A0E12FB0BF0000ADAE7000010B5416C46
:104D100096B0044601B368460AF0DEFD21466846B7
:104D20000AF071FE0F4968460AF057FE6846616C4A
:104D30000AF04BFE0122002168460AF05EFE0A4995
:104D400068460AF04CFE094968460AF037FE684694
:104D50000AF07AFE16B010BD16B0BDE8104020F083
:104D6000FDBD0000E15902089DF90008E359020861
:104D700030B415460A460146D4B2012D08D0022DA2
:104D800014D0032D18D10D7815FB04F4240A04E087
:104D90000D782C44FF2C00D3FF2464F30700120A83
:104DA00062F30F2030BC1A460DF042BD0D782C1B6B
:104DB000002CF2DC0024F0E730BC70472DE9F04114
:104DC00017460446C1F30746C1F30725CAB2012FAF
:104DD00014D0022F31D0032F2DD1A77817FB06F660
:104DE000360A66F31740667816FB05F52D0A65F35B
:104DF0000F20257815FB02F2120A12E0A7783E4434
:104E0000FF2E00D3FF2666F3174066783544FF2D4A
:104E100000D3FF2565F30F2025782A44FF2A00D30D
:104E2000FF2262F30700090E61F31F6021681A4632
:104E30000DF0BDFD2060BDE8F081A778BE1B002EFF
:104E400000DC002666F317406678751B002D00DC39
:104E5000002565F30F202578AA1A002AE1DC00223C
:104E6000DFE72DE9F84380461F460E4615461046FB
:104E70000DF0ACFC04463146404605F0F0FDC0EBB9
:104E80000020C0B28DF80000012F15D0022F19D0DC
:104E9000032F0FD110FB04F0C0F307202A0E694640
:104EA0000DF034FE9DF8000031467F2840460ED9B3
:104EB00025F020F8BDE8F8832044FF2800DBFF2020
:104EC000C0B2EBE7001B0028FADC0020F8E701F095
:104ED0008BF9EFE770B5044616460D4608460DF00F
:104EE00075FC012E0ED0022E13D0032E17D121787F
:104EF00011FB00F0C0F307202A0E2146BDE87040E8
:104F00000DF012BE21780844FF2800DBFF20C0B25C
:104F1000F2E72178081A0028F9DC0020F7E770BDD5
:104F200038B500230093CDB2C1F30724C1F3074382
:104F3000012A14D0022A2DD0032A2AD1027812FB8A
:104F400005F2120A8DF80020427812FB04F2120AD0
:104F50008DF80120827812FB03F2120A12E0027827
:104F60002A44FF2A00D3FF228DF8002042782244F1
:104F7000FF2A00D3FF228DF8012082781A44FF2AED
:104F800000D3FF228DF802200A0E014668460DF07C
:104F9000E8FC38BD0278521B002A00DC00228DF8A4
:104FA00000204278121B002A00DC00228DF801202C
:104FB0008278D21A002AE5DC0022E3E710B5044625
:104FC000406882080AD0496821F00301091D08449D
:104FD0006060204600F042F8204610BDFEE74068C1
:104FE000103120F00300884201D3012070470020D7
:104FF00070472DE9FC47054648680C4620F0030041
:1050000001AA694620F079F9DDE9007005EBC711C6
:1050100001EB80098046D9F8400060B164B1C4E971
:10502000020504F10806C46030460421FEF79EFE26
:10503000864202D0FEE7FEE7FEE7C9F840400120C5
:10504000296900FA07F21143296105EB870100FA8B
:1050500008F04A6902434A61BDE8FC8710B504467E
:1050600000F087F8046010BD2DE9FC4706464FF0BC
:1050700000000D0000900746019042D00C46E94622
:105080000DF10408802907D3084628F08DFA411F46
:1050900001208840401E044442464946204620F0F4
:1050A0002CF9009C0B2C2CDA06EB8400019A406949
:1050B0004FF0FF3101FA02F210400CD1641C30694C
:1050C000A14008401DD028F067FA0446009006EB86
:1050D0008000406978B128F05FFA034606EBC411FE
:1050E000019001EB8000076C5FB1786820F003004D
:1050F000A84201D2FEE7FEE739463046009A21F089
:105100002FFC3846BDE8FC8710B50446FFF7A6FF24
:10511000416841F002014160606840F00100606058
:1051200010BD10B5044600F024F8416821F00201DA
:105130004160606820F00100606010BD70B50646F7
:105140000D46084600F015F8040010D02079C0077D
:105150000BD0686880080BD02146304600F03CF840
:1051600021462846FFF72AFF0546284670BDFEE780
:10517000FEE7426800F1080122F00300001F084426
:10518000910800D1FEE7704770B506460C004FF05D
:1051900000001ED0F2B120791546C0071BD0114681
:1051A0002046FFF71CFF78B12946204600F025F87D
:1051B00005462046FFF752FF6868294640F0020086
:1051C00068603046FFF715FF2046FFF7AAFF04F19D
:1051D000080070BDFEE7FEE77CB5054648680C4652
:1051E00020F0030001AA694620F087F8DDE90023DA
:1051F0002146284621F0B4FB7CBD2DE9F0410D4647
:10520000044600F10801281F0E18606806F108071F
:1052100020F00300401BA0F1040838460421FEF7EB
:10522000A5FD874200D0FEE7606820F0030108EB8F
:105230000500001D814200D0FEE7307900F0030038
:1052400040EA0800706020F003000C2800D2FEE75E
:10525000207900F00300284360603046FFF754FFD8
:105260003046BDE8F08138B5044615F049F90546E9
:1052700015F031FB0028204605D0616C21641AF03E
:10528000D1FA012038BD13F053FB002820461ED070
:1052900013F0FFF9D4E9100181420CD06064206C56
:1052A00000906A46202120461BF087FB0128E9D1A7
:1052B00020461AF0B7FA284615F01CFB0428E0D166
:1052C000204618F0B0FE002114F0C2FBD9E713F01D
:1052D0008DFBD6E7002802D0C01C20F003007047E9
:1052E00013F0D0BFC01C17F04FBA2DE9F0410446AF
:1052F000006815461346476A0E4600222046B84706
:1053000001280FD10020BDE8F0812946204600F099
:1053100013F80028F7D020682B460022476A314650
:105320002046B8470228F0D020682A463146036953
:105330002046BDE8F041184770B5044600680E46A7
:10534000026A20469047050010D020683246294660
:1053500043692046984728460CF0A3FCA2693146D1
:10536000904728460CF094FC012070BD002070BDD1
:105370002DE9F04F0C4685B00546002118F063FD7D
:1053800058B32146284600F08DFA2146284600F001
:1053900069F80021284619F069FC83460021284657
:1053A00019F0B8FC04900021284619F036FB0128BA
:1053B0001BD000270021284619F039FE8046002125
:1053C000284619F0ABFB6FF040490646C8450ED1A0
:1053D000688D00050BD401200AE005B02046BDE829
:1053E000F04F2022002117F000BB0127E2E7002048
:1053F0008046284618F0C5FD8246284600218222B4
:1054000019F0B2FCC2B22369A1682068CDE900316D
:10541000CDE902075B464146504606F077FAA061A7
:105420004E4504D1688D400501D4012600E00026D8
:10543000284618F095FD074628460021832219F0DA
:1054400093FCC2B2606900256368E1688DE82B00B7
:1054500031463846049B06F059FAE06105B0BDE8D4
:10546000F08F00002DE9F34F81B00C46019805F054
:10547000D5FC06004FF000081ED1019818F028FE58
:1054800005F0CCFC070074D0019805F0CBFC8146F8
:10549000019805F0CBFC80468500281D17F074F9B3
:1054A00006462A4607EB890117F0E4F96FF06041E0
:1054B00046F828104FF00108019818F062FD834665
:1054C000304600F02FFF2061800017F05DF920606A
:1054D0002069800017F058F90025DFF82CA1A060A2
:1054E00038E056F82510DFF82491514531D10027D6
:1054F0001FE03946019818F0A6FC4549009019F0C4
:105500006EFEA8B9009805F091FC012810D1009812
:1055100005F088FCA8420BD1009819F013FE49460B
:10552000484501DA084602E0009819F00BFE814672
:105530007F1C019818F0C6FCB842DAD8B9F1000F08
:1055400003DBA16841F8259003E0A168002041F841
:1055500025006D1C2069A842C3D8DFF8AC90002557
:1055600009F10109C9F1000352462F4628469A461F
:1055700014E046E056F82010494503DB6B1803EBB6
:105580000A050AE0914204D1A16851F820100F44A5
:1055900003E0A3680F4443F82010401C21698142B6
:1055A000E8D80021019819F061FB2169C1F10102DD
:1055B00000FB02B0C01B00D50020002114E000BF9A
:1055C00056F821204A450EDB02EB0A0300FB03F2EA
:1055D00005EBD57702EB670292FBF5F2A768ED1AAF
:1055E000801A47F82120491C22698A4201D9002DDE
:1055F000E6D1B8F1000F04D03046BDE8FE4F13F0FD
:1056000041BEBDE8FE8F00009AFFFF1F010000E0D1
:10561000010006002DE9FC5F054618F0A9FE83464F
:10562000A86808B10021C1610021284619F05CFC7E
:1056300001900021284619F0CAFB8246284619F03D
:10564000A7F9014601982E4C014401EB0A072846B0
:1056500018F038FC8046002639E0A868DFF8A090F2
:105660002849006850F82600009019F0B8FD68BB82
:1056700000981AF037F9E0BB0021009819F0ACF956
:10568000B8B3012836D0022834D0032832D0002104
:10569000009819F0D8FC60B9009814300BF014F899
:1056A000019900EB01090021009819F06DFA4844B6
:1056B00081460021009819F04CFA4844A04205DBCD
:1056C0000021009819F045FA00EB0904761C4645C4
:1056D000C3D3A86810B1CBF10001C1616FF0604085
:1056E000C44203D004EB0A00B84200DA3846BDE8F1
:1056F000FC9FFFE70098A969006A401A401CD7E7A1
:10570000010000E0010004002DE9FE4F054618F0FD
:1057100029FE0290A86808B1002181610021284675
:1057200019F0B3FB00900021284619F07FFB834657
:10573000284619F03BF900EB0B010098DFF85C916B
:1057400001EB00084C46284618F0BCFB0746002138
:10575000284619F050F901284FF0000645D082E0A4
:10576000A868CA464E49006850F82600019019F012
:1057700036FDC8BB01981AF0B5F820B10198E96967
:105780004069081A14E00021019819F025F958B170
:10579000032809D0062807D0082805D00021019841
:1057A00019F04EFC30B112E00199E8694969401ADC
:1057B000401C0BE0019814300AF095FF009900EBB3
:1057C000010A0021019819F0CDF9504482460021C8
:1057D000019819F0C7F95044A04205DB0021019857
:1057E00019F0C0F900EB0A04761CBE42B8D34C4550
:1057F0003FD05C443DE0A868CA462949006850F89B
:105800002600019019F0EBFC60BB01981AF06AF8D1
:10581000E0BB0021019819F0DFF8B8B3012836D0B9
:10582000042834D0072832D00021019819F008FC50
:1058300058B9019814300AF056FF00EB0B0A00210A
:10584000019819F098F9504482460021019819F006
:1058500092F95044A04205DB0021019819F08BF920
:1058600000EB0A04761CBE42C5D34C4501D000981B
:105870000444A86810B10299494281614C454046F0
:1058800002D0444500DD2046BDE8FE8FFFE70198C9
:105890006969C069401A401CD6E70000010000E0B9
:1058A000010004002DE9F34F81B00C46019805F08A
:1058B0006EFE06004FF000081ED1019818F008FC9B
:1058C00005F065FE070072D0019805F0DBFE814609
:1058D000019805F0DBFE80468500281D16F054FF78
:1058E00006462A4607EB890116F0C4FF6FF06041B7
:1058F00046F828104FF00108304600F013FD6061B3
:10590000800016F041FF60606069800016F03CFF87
:105910000025DFF838A1E0603AE056F82500DFF80E
:105920003091504533D10027DFF828B11FE03946C8
:10593000019818F088FA5946009019F050FCA8B95F
:10594000009805F0A3FE012810D1009805F09AFEFA
:10595000A8420BD1009818F06BFB4946484501DA84
:10596000084602E0009818F063FB81467F1C01980E
:1059700018F0A8FAB842DAD8B9F1000F03DBE168F1
:1059800041F8259003E0E168002041F825006D1CF6
:105990006069A842C1D8DFF8B490002509F1010977
:1059A000C9F1000352462F4628469A4614E04AE0C1
:1059B00056F82010494503DB6B1803EB0A050AE093
:1059C000914204D1E16851F820100F4403E0E368EC
:1059D0000F4443F82010401C61698142E8D800213F
:1059E000019819F097F98346019818F0B9FA014621
:1059F0006069C0F101020BFB0210C01B00D5002042
:105A0000002113E056F821204A450EDB02EB0A0381
:105A100000FB03F205EBD57702EB670292FBF5F290
:105A2000E768ED1A801A47F82120491C62698A420A
:105A300001D9002DE6D1B8F1000F04D03046BDE801
:105A4000FE4F13F01FBCBDE8FE8F00009AFFFF1F42
:105A5000010000E00100060070B5044600216E223E
:105A600019F082F9D8B9204600216C2219F07CF98E
:105A70004FF48075A84212D1204600216D2219F002
:105A800073F9A8420BD120460021712219F06CF95C
:105A900028B920460021722219F066F908B10220C7
:105AA00070BD20460021602219F05EF9C0B2FF28C7
:105AB0000DD120460021732219F056F938B920463D
:105AC0000021672219F050F910F0FF00E8D0012002
:105AD00070BD2DE9F041044606A81D46174690E822
