:020000040800F2
:1000000070FC0020DD010008EB230008ED1B000858
:10001000E9230008E3020008192B00080000000093
:10002000000000000000000000000000E5280008BB
:10003000AF03000800000000ED230008212900089C
:10004000F7010008F7010008F7010008F7010008B0
:10005000F7010008F7010008F7010008F7010008A0
:10006000F7010008F7010008F7010008E5020008A1
:10007000F1020008FD020008F7010008F70100087E
:10008000F7010008F7010008F7010008F701000870
:10009000F7010008F7010008F7010008F701000860
:1000A000F7010008212A0008F7010008F7010008FD
:1000B000F7010008F7010008F7010008F701000840
:1000C000F7010008F701000855260008F7010008AD
:1000D000F7010008F7010008F7010008F701000820
:1000E000F7010008F7010008F7010008F701000810
:1000F000F7010008F7010008F7010008F701000800
:10010000F7010008F7010008F7010008F7010008EF
:10011000F7010008F7010008F7010008F7010008DF
:10012000F7010008F7010008F7010008F7010008CF
:10013000F7010008F7010008F701000800F002F8D5
:1001400000F03CF80AA090E8000C82448344AAF135
:100150000107DA4501D100F031F8AFF2090EBAE833
:100160000F0013F0010F18BFFB1A43F001031847EB
:10017000142B0000342B0000103A24BF78C878C13B
:10018000FAD8520724BF30C830C144BF04680C609D
:10019000704700000023002400250026103A28BFE5
:1001A00078C1FBD8520728BF30C148BF0B607047E9
:1001B0001FB502F0E3FC1FBD10B510BD00F058F8EC
:1001C0001146FFF7F5FF02F0B9FC00F076F803B432
:1001D000FFF7F2FF03BC00F07DF8000009488047FC
:1001E00009480047FEE7FEE7FEE7FEE7FEE7FEE719
:1001F000FEE7FEE7FEE7FEE704480549054A064B31
:1002000070470000C52900083D01000870F6002075
:1002100070FC002070F8002070F800204FF0000201
:1002200000B5134694469646203922BFA0E80C50EC
:10023000A0E80C50B1F12001BFF4F7AF090728BFC7
:10024000A0E80C5048BF0CC05DF804EB890028BF43
:1002500040F8042B08BF704748BF20F8022B11F06C
:10026000804F18BF00F8012B7047704770477047E8
:10027000754600F02BF8AE4605006946534620F05F
:100280000700854618B020B5FFF7B6FFBDE820404F
:100290004FF000064FF000074FF000084FF0000B42
:1002A00021F00701AC46ACE8C009ACE8C009ACE8F5
:1002B000C009ACE8C0098D46704710B50446AFF3DD
:1002C00000802046BDE81040FFF781BF004870471E
:1002D0000CF6002001491820ABBEFEE72600020004
:1002E0007047FEE7014800F09DB80000F0000020D4
:1002F000014800F097B8000050010020014800F0CC
:1003000091B800002C0000200D4B416C026821F0D8
:1003100003019A4201D20B4B01E00A4B1C331944F2
:100320008164D1B214220839B1FBF2F1054A80325E
:10033000C26401F01F020121914001657047000075
:1003400008040240000802400179084A01F03F0118
:1003500002EB81024265054A4432491E826501F082
:10036000030201219140C16570470000FC08024072
:1003700030B5D0E913456560446D14B1D0E9164538
:10038000656090F8444004F01C050124AC40056C05
:100390006C60046863608368102B036803D0996005
:1003A0000068C26030BD9A600068C16030BD7047AF
:1003B00072B6FEE710B590F825100024022903D08C
:1003C0000421C16301242BE001680A6822F00E02B7
:1003D0000A6001680A6822F001020A60816C0A68FA
:1003E00022F480720A6090F84410036C01F01C0142
:1003F000012202FA01F15960D0E913134B60416DFB
:1004000031B10B6823F480730B60D0E916134B6095
:1004100080F82520002180F82410816B01B18847E5
:10042000204610BDF0B4016C0C6801680D6890F8AE
:10043000442002F01C06042202FA06F3234211D0E3
:100440006B070FD50B689B0603D40B6823F00403DE
:100450000B6090F8441001F01C018A40016C4A6066
:10046000016B1DE0022303FA06F727424FF0000C50
:100470004FF0010218D0AF0716D50C68A40605D4BA
:100480000C6824F00A040C6080F8252090F84410D1
:1004900001F01C018B40016C4B6080F824C0C16AE4
:1004A00000291AD0F0BC08470823B340234214D0D7
:1004B0002B0712D50B6823F00E030B6090F8441045
:1004C000036C01F01C0102FA01F15960C26380F86B
:1004D000252080F824C0416BE2E7F0BC70470000A3
:1004E00070B504000CD02C4A21681420914209D226
:1004F0002A4A0A44B2FBF0F08000606428480AE00F
:10050000012070BD244A52420A44B2FBF0F0800040
:100510006064214808382064022084F825000A68B5
:1005200047F6F0708243D4E902031843D4E9043556
:100530002B431843A3691843E3691843236A1843FC
:10054000104308602046FFF7DFFEA0680025B0F5E5
:10055000804F00D165602079A16C00F03F000860F9
:10056000D4E9130141606068401E032808D8204682
:10057000FFF7EAFE606D0560D4E91601416002E014
:100580006565A565E565E563012084F8250084F8C7
:100590002450002070BD000008040240F8FFFDBF99
:1005A0000000024010B590F824400023012C07D031
:1005B000012480F8244090F82540012C02D008E066
:1005C000022010BD59B101290BD002290BD00329FB
:1005D0000BD00123002180F82410184610BDC26200
:1005E000F8E70263F6E74263F4E78263F2E770B587
:1005F000044690F82400002501280CD0012084F83E
:10060000240094F825600020012E06D084F82400F0
:100610000225284670BD022070BD022684F82560A0
:10062000E0632068066826F0010606602046FFF7B2
:100630009FFE206B00282068016802D041F00E0167
:1006400006E021F0040101602068016841F00A0120
:100650000160A06C0168C90303D5016841F4807191
:100660000160606D18B1016841F48071016020681B
:10067000016841F001010160CBE7000070B504465C
:1006800000F01CF90546601C02D0044800780444C0
:1006900000F014F9401BA042FAD370BD08000020FE
:1006A0002DE9F04FDFF8E0B1DFF8DC910023012500
:1006B00003240BF1800B85B00F2709F1040A0BF11D
:1006C000040ED9E005FA03FC12EA0C027ED00E7982
:1006D00006F00306012E01D0022E20D18668009676
:1006E0005E0004FA06F80496009E26EA08060096C4
:1006F000D1F80C80049E08FA06F8009E48EA060825
:10070000C0F80880466826EA0C0691F804C0CCF3CD
:10071000001C0CFA03FC4CEA060CC0F804C00E796D
:10072000F643B6070DD0D0F80CC04FEA430804FAE0
:1007300008F62CEA060C8E6806FA08F646EA0C065D
:10074000C6600E7906F00306022E15D1DE0800EB16
:1007500086060296366A4FEA437C4FEADC6807FA5F
:1007600008FC26EA0C06D1F810C00CFA08FC4CEA8A
:10077000060C029EC6F820C0D0F800C04FEA43081D
:1007800004FA08F62CEA060C0E7906F0030606FABF
:1007900008F646EA0C0606604E6816F4403F6AD03A
:1007A0003A4E23F0030C66440296B6684FEA837C07
:1007B0004FEA1C7807FA08FC26EA0C06B0F1904FC5
:1007C00008D0DFF8CCC0604507D100E053E04FF01F
:1007D000010C19E04FF0000C16E0DFF8B8C06045DE
:1007E00002D14FF0020C0FE0DFF8ACC0604502D13F
:1007F0004FF0030C08E0DFF8A4C0604502D14FF0D1
:10080000040C01E04FF0070C0CFA08FC4CEA060C53
:10081000029EC6F808C0D9F80060CC46D1F8048022
:1008200096435FEAC82800D51643CCF80060DAF892
:100830000060D446D1F8048096435FEA882800D54A
:100840001643CCF80060DBF80060DC46D1F8048089
:1008500096435FEAC83800D51643CCF80060DEF84E
:100860000060F446D1F8048096435FEA883800D5EA
:100870001643CCF800605B1C0A6832FA03F67FF47A
:1008800021AF05B0BDE8F08F00080058000001401E
:100890000004004800080048000C00480010004810
:1008A000426921EA02030A4043EA0241816170473A
:1008B0000AB1816170478162704700000148806819
:1008C00070470000080000200148406870470000A1
:1008D0000800002002488168027811448160704756
:1008E00008000020094810B50168002441F4807117
:1008F0000160032000F05AF80F2000F009F808B159
:10090000012401E000F024F8204610BD004000580A
:1009100070B50E4E054600243078A0B100F070FA94
:1009200031784FF47A72B2FBF1F1B0FBF1F001F0E3
:1009300026F840B9102D06D200222946501E00F09C
:1009400015F8756000E00124204670BD0800002005
:100950007047002809DB00F01F0201219140400987
:10096000800000F1E020C0F800117047F0B40E4B99
:100970001B680C46C3F30223C3F10705042D00D9FD
:100980000425191D072901D2002300E0DB1E0126E2
:1009900006FA05F1491E214099409E40761E1640F8
:1009A0003143F0BC02F0B9B80CED00E0064900F0AC
:1009B000070208684FF6FF03184040EA0220034A86
:1009C00010430860704700000CED00E00000FA05DD
:1009D0000248006800F4C06070470000000400583E
:1009E0000248016841F480710160704700040058BA
:1009F0002DE9F0410446002700783E4640064FF0BE
:100A0000B04517D5206B78B1B0F5800F07D0B0F5A1
:100A1000000F3BD0B0F5400F38D0012709E0E8685F
:100A200040F48030E86031E0201D01F0F6FC070062
:100A30002CD03E462088000546D5D5F8900000F41D
:100A40004076206CB0423ED0FFF7CAFF3EB3D5F8E7
:100A50009000D5F8901041F48031C5F89010D5F889
:100A6000901021F48031C5F89010216C20F4407072
:100A70000843C5F89000D5F8900010F0010F22D07F
:100A8000FFF71CFF064641F2883818E0206BD5F8C6
:100A9000881021F440010143C5F88810CAE7206C92
:100AA000D5F8901021F440710143C5F890100AE088
:100AB000FFF704FF811B414501D9032703E001F043
:100AC00056FA0128F4D13E462078C00707D0A06925
:100AD000D5F8881021F003010143C5F8881020786B
:100AE000800707D5E069D5F8881021F440610143FB
:100AF000C5F888102078C00602D5A06A01F097FAE0
:100B00002078800602D5E06A01F091FA207840074B
:100B100002D5206A01F07CFA2078000702D5606ACD
:100B200001F076FA2088C00513D5606B01F067FAF2
:100B3000606BB0F1006F03D1E86840F08070E8604E
:100B4000606BB0F1806F04D1201D01F0A0FC00B1FA
:100B50000646208880051BD5A06BB0F1804F10D0D1
:100B6000B0F1004F0DD060B120F08057002001F0AF
:100B700069FA384601F043FAA06BB0F1C05F03D0C8
:100B800006E001F05FFAF7E7E86840F08070E8609F
:100B90002088400518D5E06BD5F8881021F0405129
:100BA0000143C5F88810E06BB0F1005F03D1E8683D
:100BB00040F48030E860E06BB0F1805F04D1201D2C
:100BC00001F09FFC00B106462088C00407D5606C88
:100BD000D5F8941021F440410143C5F894102088C1
:100BE00080040BD5E06C696A21F030010143696231
:100BF000A06C696A21F00301014369623046BDE8D7
:100C0000F08100002DE9F0410F46050077D07A4EC3
:100C1000306800F00700B84212D2306820F00700B8
:100C200038433060FFF74AFE044604E0FFF746FE13
:100C3000001B02287DD8306800F00700B842F5D1CB
:100C400028784FF0B044800715D5A868A16821F036
:100C5000F0010143A160FFF731FE804606E000BFCE
:100C6000FFF72CFEA0EB0800022862D8A068C0F3B2
:100C700000400028F4D02878800617D56869D4F899
:100C8000081121F0F0010143C4F80811FFF716FE26
:100C9000804605E0FFF712FEA0EB0800022848D8C6
:100CA000D4F80801C0F340400028F3D0287840066B
:100CB00018D5A869D4F8081121F00F0141EA1010E5
:100CC000C4F80801FFF7FAFD804605E0FFF7F6FDDE
:100CD000A0EB080002287ED8D4F80801C0F3004039
:100CE0000028F3D02878400715D5E868A16821F4DA
:100CF000E0610143A160FFF7E1FD804606E048E0C6
:100D0000FFF7DCFDA0EB0800022864D8A068C0F360
:100D100040400028F4D02878000716D52869A1683B
:100D200021F4605141EAC001A160FFF7C7FD804690
:100D300006E050E0FFF7C2FDA0EB080002284AD809
:100D4000A068C0F380400028F4D02878C0072ED0D7
:100D50006868022806D0032808D0B8B12068C0F31C
:100D6000802006E02068C0F3404002E02068C0F325
:100D7000406070B16868A16821F003010143A1607F
:100D8000FFF79CFD044641F288380AE001F006F9BD
:100D9000EFE70120BDE8F081FFF790FD011B414521
:100DA00019D801F0D5F86968B0EB810FF4D130683B
:100DB00000F00700B84215D9306820F0070038432A
:100DC0003060FFF77BFD044607E000BFFFF776FDCC
:100DD000001B022801D90320DCE7306800F007007F
:100DE000B842F3D100F00CF804490860FFF76CFD3D
:100DF000BDE8F041FFF78CBD004000581400002012
:100E000010B500F00FF84FF0B0418968044A01F0C6
:100E1000F00102EB91010968B0FBF1F010BD000098
:100E2000B42B00082DE9F04101F092F8204F38B3BF
:100E3000204C04282CD066004FF0B045082829D05B
:100E400001F0D7F8022808D003282AD001F09DF835
:100E500000F0F00007EB90000468E868E968C0F370
:100E60000620604301F07002012101EB1212B0FB79
:100E7000F2F2E86801EB5070B2FBF0F0BDE8F081EF
:100E800001F083F800F0F00007EB90000068F5E750
:100E90002046F3E72868C0F300500028F8D1304618
:100EA000ECE72868C0F300500028D6D13446D4E7D8
:100EB000F42B00080024F4002DE9F04104007DD05B
:100EC00020784FF0B04580065FD501F041F8064626
:100ED00001F08FF876B10C2E01D101280AD0E0691B
:100EE0000028286840D040F001002860FFF7E6FCA9
:100EF00006462EE0E0690028E1D001F046F8014600
:100F0000606A81420AD201F07FFB002856D1606AF4
:100F100001F053F8206A01F047F809E001F04DF8BC
:100F2000206A01F041F8606A01F06EFB0028EDD103
:100F3000FFF766FFFE490860FE480068FFF7E8FC1F
:100F40000028E3D121E000BFFFF7B8FC801B022896
:100F500073D801F023F80028F6D0606A01F02DF86C
:100F6000206A01F021F810E020F001002860FFF76E
:100F7000A5FC064605E000BFFFF7A0FC801B022889
:100F8000E6D801F00BF80028F6D12078C0073BD056
:100F900000F0DEFF064601F02CF8082E13D00C2ED0
:100FA00001D103280FD06068B0F5803F28680ED0CB
:100FB00020F4803028606068B8B100E010E2FFF7EC
:100FC0007DFC06460BE06068002895D01CE040F4EC
:100FD0008030EFE7FFF772FC801B6428B8D82868E0
:100FE000C0F340400028F5D00EE0FFF767FC06464E
:100FF00005E000BFFFF762FC801B6428A8D82868C2
:10100000C0F340400028F5D1207880073AD500F0A1
:101010009FFF064600F0EDFF042E0FD00C2E01D1ED
:1010200002280BD0E068002828681AD040F48070AD
:101030002860FFF743FC06460DE02AE1E06800283F
:10104000C3D0206900F08AFF1CE000BFFFF736FC28
:10105000801B022894D82868C0F380200028F5D08F
:10106000EFE720F480702860FFF728FC064604E0D4
:10107000FFF724FC801B0228B0D82868C0F380202A
:101080000028F5D12068010701D4C1064DD561695A
:10109000E9B3C0064AD500F071FF90B9D5F89400C5
:1010A00040F00100C5F89400FFF708FC064604E094
:1010B000FFF704FC801B022890D800F05FFF002897
:1010C000F6D0D5F8940040F00400C5F89400FFF77E
:1010D000F5FB064605E000BFFFF7F0FB801B032889
:1010E0008CD8D5F89400C0F3C0000028F4D0A069D3
:1010F000D5F8941021F4706141EA0020C5F89400FD
:10110000D5F8940020F00100C5F8940000E033E029
:10111000FFF7D4FB064604E0FFF7D0FB801B022854
:1011200098D800F02BFF0028F6D14EE0D5F89400B7
:1011300040F00100C5F89400FFF7C0FB064604E04C
:10114000FFF7BCFB801B022884D800F017FF0028A3
:10115000F6D0D5F8940020F00400C5F8940004E01F
:10116000FFF7ACFB801B032886D8D5F89400C0F3AA
:10117000C0000028F4D128E0D5F8940020F0040045
:10118000C5F89400FFF79AFB064604E0FFF796FBCC
:10119000801B03287DD8D5F89400C0F3C000002838
:1011A000F4D1D5F8940020F00100C5F89400FFF7C1
:1011B00085FB064605E000BFFFF780FB801B022889
:1011C00067D800F0DBFE0028F6D12078400750D524
:1011D000594F3868C0050DD4FFF702FCFFF76EFBCE
:1011E000064604E0FFF76AFB801B022851D83868E6
:1011F000C005F7D5A068012816D00528D5F89000BD
:1012000017D020F00100C5F89000D5F8900020F02C
:10121000040000BFC5F89000A06841F28836C8B14C
:10122000FFF74CFB07460EE0D5F8900040F00100B8
:10123000F0E740F00400C5F89000F5E7FFF73EFB4B
:10124000C01BB04225D8D5F89000C0F3400000285C
:10125000F4D00EE0FFF732FB074604E0FFF72EFB69
:10126000C01BB04215D8D5F89000C0F3400000284C
:10127000F4D1207840062CD5A06A0028D5F8980033
:1012800014D040F00100C5F89800FFF717FB0646A0
:1012900005E083E0FFF712FB801B02287ED8D5F81B
:1012A0009800C0F340000028F4D012E020F00100C4
:1012B000C5F89800FFF702FB064604E0FFF7FEFAC8
:1012C000801B02286AD8D5F89800C0F34000002897
:1012D000F4D1E06A90B300F03BFE0146E868E26AB0
:1012E000022A09D00C297BD0286820F08070286061
:1012F000FFF7E4FA044687E0236B00F003029A420A
:1013000020D1636B00F070029A421BD1A26BC0F334
:1013100006239A4216D1E36B00F478129A4211D157
:10132000236C00F060629A420CD100F0604006E04D
:10133000140000200C000020000400585AE0626CE9
:1013400090423ED00C2968D02868400165D42868B6
:1013500020F080702860FFF7B1FA064605E000BF74
:10136000FFF7ACFA801B02284BD828688001F7D41D
:10137000D4E90C010843D4E90E2141EA02210843D3
:10138000216C0843616C0843E968254A1140084311
:10139000E860286840F08070286000E031E0E8688C
:1013A00040F08050E860FFF789FA044605E000BF8E
:1013B000FFF784FA001B022823D828688001F7D59C
:1013C00029E02868800126D4286840F080702860D1
:1013D000E86840F08050E860FFF770FA044606E0E5
:1013E0001BE000BFFFF76AFA001B022809D8286833
:1013F0008001F7D50FE000BFFFF760FA001B02285D
:1014000002D90320BDE8F08128688001F4D4E8689F
:1014100004490840E8600020F4E70120F2E70000FA
:101420008C80C111FCFFFEEE704790F85D007047A4
:1014300038B5016804464A688868C043430606D543
:10144000C30704D1D3435B0601D4E16C05E08307F5
:1014500008D4D3431B0605D4216D01B02046BDE856
:1014600030400847830603D5430601D5C30551D450
:10147000D3439B064ED443060AD494F85D30032B25
:1014800049D0236E43F004032366CB688B68009336
:10149000830609D4236E43F0010323668B6800930F
:1014A0000B6823F040030B60C00506D4206E40F0AB
:1014B00008002066206880680090206E002829D0EF
:1014C0002068416821F0E0014160012084F85D005E
:1014D000900701D4D00722D02068416821F0030191
:1014E0004160114DA06D40B18563A06DFEF762FFB4
:1014F00018B1206E40F040002066606D002809D0D1
:101500008563606DFEF756FF002803D0206E40F023
:101510004000206638BDC8688868009038BD204605
:10152000FFF782FF38BD00006126000870B5040097
:1015300009D0606A002540B125616561A56294F813
:101540005D0040B10CE0012070BD6068B0F5827FA5
:10155000F4D0E561F2E784F85C50204600F056F8DC
:10156000022084F85D002068016821F040010160DC
:10157000E1684FF4E062914201D9002001E04FF4AC
:101580008050B1F5706F02D0914200D0A562A18861
:10159000228901F4827102F404421143227C02F098
:1015A00002021143227D02F001021143228B02F458
:1015B00000721143227F02F03802114394F8202078
:1015C00002F080021143228D02F40052114322687E
:1015D0001160A169042202EA114194F8242000F468
:1015E000805002F01002114394F8342002F00802F7
:1015F0001143A28902F470621143014320684160E3
:101600002566012084F85D00002070BD70B586B0AD
:10161000064614216846FEF701FE224930688842DA
:101620003DD14FF0B041086E40F480500866086E1E
:1016300000F480500590C86C40F00200C864C86C8B
:10164000002500F002000590382000900220CDE92E
:101650000105032003900520049069461248FFF716
:101660001FF8134C11482060072060601020C4E967
:1016700002058020C4E90405A561E56120462562D4
:10168000FEF72EFF08B1FEF793FE746500221146A7
:101690002220A662FFF76AF92220FFF75AF906B066
:1016A00070BD000000300140000400480800024006
:1016B000F00000202DE9F84F984616468A46044669
:1016C000FFF7FCF8814694F85D00012820D1BAF1BB
:1016D000000F6FD0002E6DD094F85C00012817D059
:1016E000012784F85C70032084F85D0000252566DE
:1016F000C4F838A0A687E6872564A4F84450A4F867
:1017000046502565E564A068B0F5004F03D00CE0B5
:101710000220BDE8F88F2068016821F040010160D7
:101720002068016841F48041016020680168490631
:1017300003D4016841F040010160E068B0F5E06F5A
:10174000606826D908B1012E1FD1A06B21680088DE
:10175000C86006E020688168890709D5A16B0988FF
:10176000C160A06B801CA063E08F401EE0870CE08E
:10177000FFF7A4F8A0EB0901414503D3B8F1FF3FFF
:1017800003D04BE0B8F1000F48D0E08F0028E1D142
:1017900039E008B1012E33D1E08F0128A06B03D9C5
:1017A00021680088C86010E021680078087314E0A0
:1017B000E08725E043E020688168890713D5E18F41
:1017C0000129A16B07D90988C160A06B801CA063A7
:1017D000E08F801EECE709780173A06B401CA063CA
:1017E000E08F401EE4E7FFF769F8A0EB09014145EF
:1017F00003D3B8F1FF3F03D010E0B8F1000F0DD0D4
:10180000E08F0028D7D14A464146204600F079FFB4
:1018100008B120202066A06830B109E084F85D702E
:1018200084F85C50032074E72068C16880680090E9
:1018300084F85D7004F85C5F60680028F3D00120D4
:1018400067E7000070B5044690F85D0001281ED1DE
:10185000D9B1D2B194F85C00012818D0012084F8E5
:101860005C00032384F85D3000252566A163A28710
:10187000E28725642565E564A4F84450A4F8465041
:10188000A168B1F5004F04D00DE0012070BD022029
:1018900070BD21680A6822F040020A6021680A6867
:1018A00042F480420A60626D28491163626D2849E2
:1018B000D162626D27495163616D8D6321684A6809
:1018C00022F480424A60E168B1F5E06F10D8616DA2
:1018D0008969B1F5806F0BD1E18FC90717D02168F5
:1018E0004A6842F480424A60E18F00EB5100E08791
:1018F000E38F2268A16B0C32606DFEF778FE70B149
:10190000206E40F01000206684F85C50BDE720682F
:10191000416821F480414160E08F4008E7E720689A
:101920000168490603D4016841F04001016084F870
:101930005C502068416841F02001416020684168A6
:1019400041F002014160002070BD000095260008B2
:101950009F260008732600080649884208D10648D9
:10196000C188491CC180C188052901D304210170A7
:10197000704700008C0000201C000020704710B54C
:10198000401EB0F1807F01D3012010BD4FF0E02454
:1019900060610F21601701F0C0F80020A0610720EE
:1019A0002061002010BD70477047704710B50400DB
:1019B00003D094F83D0010B107E0012010BD0020D5
:1019C00084F83C00204600F023F8022084F83D0013
:1019D000211D206801F02EF8012084F8480084F8C9
:1019E0003E0084F83F0084F8400084F8410084F809
:1019F000420084F8430084F8440084F8450084F8E9
:101A0000460084F8470084F83D00002010BD000027
:101A100008B500680B49884213D14FF0B040016E01
:101A200041F400310166006E002200F400300090A5
:101A300011461920FEF79AFFBDE808401920FEF76D
:101A400088BF08BD0044014090F83D10012901D035
:101A500001207047022180F83D100168CA6842F0F9
:101A60000102CA6000680A49884202D0B0F1804F82
:101A700007D18168074A1140062906D0B1F5803F99
:101A800003D0016841F001010160002070470000AF
:101A9000002C01400700010070472DE9F041044689
:101AA0000068C66805694FF00007A90713D5B1079C
:101AB00011D5F91E01610120207720688069800717
:101AC000204602D0FFF7E8FF04E000F08BF8204644
:101AD00000F089F82777680716D5700714D52168B4
:101AE0006FF004000861022020772068806910F4FC
:101AF000407F204602D0FFF7CFFF04E000F072F8ED
:101B0000204600F070F82777280715D5300713D541
:101B100021686FF008000861042020772068C06900
:101B20008007204602D0FFF7B7FF04E000F05AF824
:101B3000204600F058F82777E80616D5F00614D5A9
:101B400021686FF010000861082020772068C069C4
:101B500010F4407F204602D0FFF79EFF04E000F023
:101B600041F8204600F03FF82777E80708D0F00753
:101B700006D021686FF001000861204600F034F8BB
:101B8000280601D4A80408D5300606D521686FF4CC
:101B9000025008612046FFF707FFE80508D5300628
:101BA00006D521686FF4807008612046FFF7FBFEC0
:101BB000680608D5700606D521686FF040000861F8
:101BC000204600F012F8A8060AD5B00608D521680C
:101BD0006FF0200008612046BDE8F041FFF7E5BE48
:101BE000BDE8F0817047704770477047FEE700001E
:101BF0002DE9F84F15460E4607464FF400484FF0C2
:101C0000904A1C46002241465046FEF751FEDFF83E
:101C1000A490002202214846FEF74AFE2A208DF8B1
:101C200000000121684600F037F9012202214846F0
:101C3000FEF73EFE380A8DF800008DF80170280A84
:101C40008DF802008DF803500421684600F024F955
:101C5000002202214846FEF72BFE2B208DF80000C3
:101C60000121684600F018F9012202214846FEF7DA
:101C70001FFE300A8DF800008DF80160200A8DF8F3
:101C800002008DF803400421684600F005F90022A7
:101C900002214846FEF70CFE2C208DF800000121A1
:101CA000684600F0F9F8012241465046FEF700FE72
:101CB000BDE8F88F000C004812484188491C41805B
:101CC00041884FF4F073402909D240880E49C0EB97
:101CD000001001EB401201F570410C480CE0418806
:101CE00080290BD240880A49C0EB001001EB40125A
:101CF00008490648A2F5F042FEF779BC02210170BE
:101D0000704700001C0000204C0200202C00002026
:101D10004C7A00202CF4002070B5144A9060012009
:101D2000107000215180124AF824084602F5F07321
:101D30005FF01F0502EB400602F81040717003F8D7
:101D4000101003EB4006401C80B27570F028F1D3F0
:101D5000084A00210848FEF725FCBDE870404FF412
:101D6000F073064A02490448FEF741BC1C000020FB
:101D70004CF20020B91C00082C0000204C0200206E
:101D800070B51C4C207803281AD02078042830D154
:101D900041034FF0904501222846FEF789FD4FF49C
:101DA00080712846FEF77CFD607800B300206070EB
:101DB00002202070A06800281BD0BDE870400047BA
:101DC000A088052815D2E088A188884211D30A4846
:101DD000FFF72BFB01280CD1A088401CA080E168F4
:101DE000BDE870404FF4F0420348FFF72BBD0120DF
:101DF000DDE770BD1C0000208C0000200848007842
:101E000005280BD2DFE800F0030A060808000020CE
:101E1000FFF782BF00F006B8FFF7B2BF70470000BF
:101E20001C00002070B5174C2078022828D160785B
:101E300008B1154D00E0154D002140F23F13EF228F
:101E40000846FFF7D5FE012202211148FEF730FDBA
:101E500000224FF400414FF09040FEF729FD03208F
:101E600020700020A080E080E560A088401CA08059
:101E70002946BDE870404FF4F0420648FFF7E2BC47
:101E800070BD00001C0000204C0200204C7A002095
:101E9000000C00488C0000200A4601464FF47A737B
:101EA0000148FFF707BC00008C000020F1B50F4C83
:101EB000002202212046FEF7FBFC4FF400454FF0C4
:101EC0009046002229463046FEF7F2FC0121684682
:101ED000FFF7E2FF012229463046FEF7E9FC012226
:101EE00002212046FEF7E4FCF8BD0000000C00488B
:101EF00031B5012202210B48FEF7DAFC4FF4004411
:101F00004FF09045002221462846FEF7D1FC0121E2
:101F10006846FFF7C1FF012221462846FEF7C8FCAC
:101F200038BD0000000C004808B54FF0B0418A6C85
:101F300002438A64896C0140009108BD08B54FF0E6
:101F4000B041CA6C0243CA64C96C0140009108BD2B
:101F50004FF0B040806800F00C0070474FF0B04187
:101F60004A6822F0FE4242EA0060486070474FF043
:101F7000B040D0F89000C0F3400070474FF0B04040
:101F8000D0F89400C0F3400070474FF0B0400068B4
:101F900000F0F000B02800D9B02070474FF0B040FA
:101FA0000068C0F3400070474FF0B0414A6822F427
:101FB0007F4242EA0020486070474FF0B0410A6813
:101FC00022F0F00202430A6070474FF0B04001680F
:101FD00021F08061016070474FF0B040016841F02E
:101FE0008061016070474FF0B0400068C0F3C0608E
:101FF00070474FF0B040C06800F0030070474FF0EA
:10200000B04151F8882F22F0406202430A607047C5
:1020100010B54FF0B04151F8883F4FF47F2202EAEB
:102020001014A34302EA001003430B6010BD4FF0ED
:10203000B04151F8882F030C1B049A4342EA004038
:10204000086070474FF0B04151F8882F22F04042AD
:1020500002430A607047000010B56F4C0122114620
:102060002046FEF725FC7820FEF708FB0022012120
:102070002046FEF71DFC6420FEF700FB01221146FE
:102080002046FEF715FC7820FEF7F8FA0020FFF74F
:102090000DFF0A20FEF7F2FA1120FFF707FF782064
:1020A000FEF7ECFA3620FFF701FF0020FFF720FFD4
:1020B0003A20FFF7FBFE0520FFF71AFFB220FFF7DB
:1020C000F5FE0C20FFF714FF0C20FFF711FF002096
:1020D000FFF70EFF3320FFF70BFF3320FFF708FF5A
:1020E000B720FFF7E3FE3520FFF702FFBB20FFF725
:1020F000DDFE3620FFF7FCFEC020FFF7D7FE2C20C8
:10210000FFF7F6FEC220FFF7D1FE0120FFF7F0FE39
:10211000C320FFF7CBFE1220FFF7EAFEC420FFF733
:10212000C5FE2020FFF7E4FEC620FFF7BFFE0F200C
:10213000FFF7DEFED020FFF7B9FEA420FFF7D8FEA0
:10214000A120FFF7D5FEE020FFF7B0FED020FFF77B
:10215000CFFE0020FFF7CCFE0520FFF7C9FE0E20C2
:10216000FFF7C6FE1520FFF7C3FE0D20FFF7C0FEE8
:102170003720FFF7BDFE4320FFF7BAFE4720FFF7E9
:10218000B7FE0920FFF7B4FE1520FFF7B1FE1220BD
:10219000FFF7AEFE1620FFF7ABFE1920FFF7A8FEF3
:1021A000E120FFF783FED020FFF7A2FE0020FFF71B
:1021B0009FFE0520FFF79CFE0D20FFF799FE0C20E7
:1021C000FFF796FE0620FFF793FE2D20FFF790FE07
:1021D0004420FFF78DFE4020FFF78AFE0E20FFF718
:1021E00087FE1C20FFF784FE1820FFF781FE1620D3
:1021F000FFF77EFE1920FFF77BFE2920FFF756FE32
:102200007820FEF73BFA2C20FFF750FEBDE8104087
:102210007820FEF733BA0000000C004810B5042007
:10222000FFF782FE0120FFF77FFE184816494FF4A2
:10223000804201600021C0E901124022C260802278
:10224000C0E904218161C1610162FEF749F908B169
:10225000FEF7AEF8002211460B20FEF787FB0B209D
:10226000FEF777FB002211460C20FEF77FFB0C20C7
:10227000FEF76FFB002211460D20FEF777FBBDE84D
:1022800010400D20FEF765BB300002402C000020FE
:102290002DE9F04786B014216846FDF7BFFF042002
:1022A000FFF74CFE0220FFF749FE0120FFF746FE34
:1022B0001020FFF743FE0820FFF740FE4FF0904A42
:1022C000002220215046FEF7F3FADFF88C804FF40D
:1022D0008057002239464046FEF7EAFADFF87C9044
:1022E000002203214846FEF7E3FA032420200125BB
:1022F000002603948DE8610069465046FEF7D0F948
:10230000E80303948DE8610069465046FEF7C8F97A
:10231000CDE90264CDE9007569464046FEF7C0F993
:102320008DE87000694648460394FEF7B9F901222A
:1023300039464046FEF7BCFA012220215046FEF7FE
:10234000B7FA280203948DE8610069465046FEF70B
:10235000A7F906B0BDE8F08700080048000C004867
:10236000124810B5104901604FF48271416000219C
:102370004FF4E062C0E902120222026101224261CE
:102380005202C0E9062101620A224162C0E90A1232
:1023900001634163FFF7CAF8002803D0BDE810408D
:1023A000FEF706B810BD0000003001408C00002090
:1023B0000C4810B50A4901603F214160002140F2FC
:1023C000E732C0E90212016141618161FFF7EEFA73
:1023D000002803D0BDE81040FDF7EABF10BD0000A3
:1023E00000440140B0010020FEE7FEE7704700B561
:1023F00095B050216846FDF711FF4FF40050009052
:1024000000201290102013906846FEF7F1FA002881
:1024100001D072B6FEE715B000BD2DE9F0410646C9
:102420000025FFF7D2FDFEF749FA044604E0FEF767
:1024300045FA001B02281DD8FFF7D5FD0028F6D16C
:102440004FF0B0442069316820F4FE4040EA01209A
:1024500020612069716820F4781008432061FFF73B
:10246000BBFDFEF72BFA074606E0FEF727FAC01B76
:10247000022801D9032507E0FFF7B5FD0128F4D1B3
:1024800020693169084320612846BDE8F0812DE9C3
:10249000F04106460025FFF798FDFEF70FFA0446C7
:1024A00004E0FEF70BFA001B02281DD8FFF79BFD86
:1024B0000028F6D14FF0B0442069316820F4FE4086
:1024C00040EA012020612069B16820F06060084383
:1024D0002061FFF781FDFEF7F1F9074606E0FEF700
:1024E000EDF9C01B022801D9032507E0FFF77BFDAA
:1024F0000128F4D120693169084320612846BDE8EC
:10250000F0812DE9F04106460025FFF75EFDFEF75C
:10251000D5F9044604E0FEF7D1F9001B02281DD8C6
:10252000FFF761FD0028F6D14FF0B0442069316813
:1025300020F4FE4040EA012020612069F16820F08B
:10254000604008432061FFF747FDFEF7B7F90746F3
:1025500006E0FEF7B3F9C01B022801D9032507E006
:10256000FFF741FD0128F4D120693169084320615A
:102570002846BDE8F081000070B5214A8EB00DF10B
:10258000100C78CA8CE8780038CA08AE86E83800A3
:102590003CCA8DE83C000024B1F5007F6A46214624
:1025A00007D008AB53F8215085420BD352F8214095
:1025B0000BE004AB53F821508542F7D2491C0429A3
:1025C000F8D302E0491C0329ECD30E4E306820F00A
:1025D000070020433060FEF771F9054608E000BFB0
:1025E000FEF76CF9401B022802D903200EB070BD23
:1025F000306800F00700A042F2D10020F6E70000AA
:10260000882B00080040005810B50F49B02801D9A8
:10261000C86A03E03C2202EA900008584FF0B0413B
:10262000D1F80811094A01F00F0152F82110B0FB4E
:10263000F1F4FEF7CDF901460548B4FBF0F0BDE832
:102640001040FFF799BF0000F42B0008B42B0008DE
:1026500040420F000148FEF7EBBE00008C00002056
:1026600010B5806A0021A0F84610C187FEF7DCFE95
:1026700010BD10B5806A01684A6822F003024A6002
:10268000016E41F010010166012180F85D10FEF736
:10269000CBFE10BD10B5806AFFF770F910BD38B5DC
:1026A0000546846AFEF70AF9024628680068800633
:1026B00023D42068416821F02001416020684168EE
:1026C00021F0020141606421204600F01AF818B19F
:1026D000206E40F020002066A068002118B9206814
:1026E000C26880680090E187012084F85D00206E58
:1026F00018B12046FEF798FE38BD2046FFF72CF9AA
:1027000038BDF8B515460E460B4600920446002229
:102710004FF4C05100F01AF888B9334600228021E6
:102720002046009500F082F848B9334600224FF465
:10273000C0612046009500F009F8002804D0206E02
:1027400040F0200020660320F8BD00002DE9FE4F78
:102750004FF0000A984617460E4604460C9D8DF829
:1027600004A0FEF7ABF8411BA8EB0105FEF7A6F8A5
:10277000814620684FF4C06B0C3002902A480068F4
:10278000C0EBC00000EB8000000D6843009043E008
:102790005E4506D12FB9029800788DF804009DF8A7
:1027A0000400B8F1FF3F37D0FEF788F8A0EB09002E
:1027B000A84203D215B1009858B32BE020684168B5
:1027C00021F0E00141606068B0F5827F0BD1A06824
:1027D000B0F5004F02D0B0F5806F04D120680168D9
:1027E00021F040010160A06AB0F5005F09D12068C6
:1027F000016821F4005101602068016841F4005132
:102800000160012084F85D0084F85CA00320BDE82D
:10281000FE8F0025401E0090206880683040B8423E
:10282000B6D10020F3E70000140000202DE9F843A2
:102830001E46914688460446089DFEF73FF8401B19
:10284000351AFEF73BF8074625480068C0F3CB3041
:10285000684338E0701C37D0FEF730F8C01BA84240
:1028600003D215B1009860B32CE02068416821F0D4
:10287000E00141606068B0F5827F0BD1A068B0F5DF
:10288000004F02D0B0F5806F04D12068016821F0BC
:1028900040010160A06AB0F5005F09D120680168BD
:1028A00021F4005101602068016841F40051016089
:1028B000012084F85D00002084F85C000320BDE85E
:1028C000F8830025401E00902068816838EA0100E6
:1028D00004D000214945BDD10020F0E70121F9E7EE
:1028E000140000207047000070B50B480B4E002408
:1028F000D0F8005006EB0411087B40B988684A689C
:10290000281A904203D38D60096828468847641CC2
:10291000052CEFDB70BD000018000020FC0100203A
:10292000FDF7D8BF02480168491C016070470000EC
:102930001800002010B59AB048216846FDF76EFCDB
:102940001C2112A8FDF76AFC1D48016821F4C06132
:1029500041F4007101600068032400F4C060199024
:102960004FF48030CDE900400012039040200490E5
:102970000220CDE90B0410200D9008200E9080035A
:102980000F9000031190001110906846FEF794FA22
:1029900008B172B6FEE76F20CDE912040020802155
:1029A000CDE91601149015901890032112A8FEF796
:1029B00029F9002801D072B6FEE71AB010BD000058
:1029C000000400581348016841F4700101604FF0A1
:1029D000B040016841F0010101604FF4E0218160E5
:1029E00001680D4A11400160D0F8941021F00501F2
:1029F000C0F89410D0F8981021F00101C0F8981098
:102A00000649C1600161016821F480210160002153
:102A10008161704788ED00E0FBFEF6FA00100422A9
:102A200010B5FFF77FFFBDE810400148FFF735B84C
:102A3000B001002070B50268184B4FF080469842F4
:102A400001D0B04203D122F070044A682243144CF2
:102A5000144D984205D0B04203D0A04201D0A84204
:102A600003D122F44076CA6832434E6922F08002D4
:102A700032438E68C6620E688662984203D0A042D6
:102A800001D0A84201D109690163016841F0040144
:102A9000016001214161026070BD0000002C014015
:102AA0000044014000480140014800210173704783
:102AB000FC0100200148002101777047FC01002043
:102AC0000248002180F82C1070470000FC01002013
:102AD0000248002180F83C1070470000FC010020F3
:102AE0000248002180F84C1070470000FC010020D3
:102AF00030B5074807493CC83CC13CC83CC13CC84C
:102B00003CC13CC83CC11DC881E81D0030BD00006F
:102B1000342C0008FC010020FEE70907090E0028FC
:102B200004DB00F1E02080F80014704700F00F0093
:102B300000F1E02080F8141D70470000FDF7D2FE80
:102B4000FFF7F8FEFFF753FCFFF7A2FBFFF766FB6A
:102B5000FFF706FCFFF72CFCFFF7CAFFFFF77CFA34
:102B60006420FDF78BFD0448FEF76EFFFFF7BCFE07
:102B7000FFF744F9FAE70000B00100204FF0407081
:102B8000E1EE100A7047000012000000240000006F
:102B90003600000040000000060000000C000000AD
:102BA0001000000000000000010000000200000012
:102BB0000300000001000000030000000500000009
:102BC0000100000001000000060000000A000000F3
:102BD00020000000020000000400000008000000C7
:102BE0001000000040000000800000000001000014
:102BF00000020000A0860100400D0300801A0600BC
:102C000000350C0040420F0080841E0000093D008A
:102C100000127A000024F40000366E010048E8013A
:102C2000006CDC020000000000000000000000005A
:102C300000000000A92A00080100000000000000B8
:102C400000000000B52A00080A0000000000000093
:102C500000000000C12A000832000000000000004F
:102C600000000000D12A0008FA0000000000000067
:102C700000000000E12A0008E80300000000000056
:102C800000000000A42C0008080000202400000020
:102C900078010008C82C00082C00002044FC00002B
:102CA0009401000801000000100000000000000076
:102CB00000093D00000000000001000000000000CD
:082CC00000000000000000000C
:040000050800013DB1
:00000001FF
